:100000000C94B11D0C94E21D0C94E21D0C94E21DA5
:100010000C94E21D0C9400890C94E21D0D9415348F
:100020000C948B880C94E21D0C94E21D0C94E21D40
:100030000C94E21D0C94E21D0C945EBB0C9435EF05
:100040000C94E21D0D9416160C94E21D0C94E21D06
:100050000C94E21D0C94E21D0C94E21D0D94DF3A09
:100060000C94E21D0C9489E90C94E21D0C94E21DA1
:100070000C94E21D0C94E21D0C94E21D0C94E21D04
:100080000C94E21D0C94E21D0C94E21D0C94E21DF4
:100090000C9445E90C94E21D0C94E21D0C94E21DB5
:1000A0000C94E21D0C94E21D0C942EEE0C94E21DB7
:1000B0000C94E21D0C9410EE0C94E21D0C94E21DC5
:1000C0000C94E21D0C94E21D0C94E21D0C9483ED43
:1000D0000C94E21D0C94E21D0C94E21D0C94E21DA4
:1000E0000C94E21DED8FF68F998F688F388FE59213
:1000F00031905091E6913C9258928F9229A161A340
:1001000031A326A31BA310A305A386A376A3DEA277
:10011000B0A27EA2D1A878A8D1A8D4A845A976A9D2
:10012000D1A8D1A898A92EB04EB060B06FB07BB066
:10013000B8B018B0D0B0E6B0E0B018B0E9B0F6B0E2
:10014000FDB015B1E8C4EBC4DAC4DEC4E4C422C512
:10015000EFC4F3C4F9C4FDC401C507C50BC50FC581
:1001600022C515C519C51DC56EC773C778C782C717
:100170008CC705C896C79EC7A6C7B0C7BAC7C4C7AD
:10018000D3C7DDC705C8E7C7F1C7FBC7F501D7016E
:100190005701BD0123028901FF015B015D011D02C1
:1001A0005D011D025D011D0273010502E9012502C9
:1001B0005F01E501AD01B301B501D501DD01D1015B
:1001C00065017F019F0177017701FB017701FB0149
:1001D000AB01B701084AD73B3BCE016E84BCBFFDE3
:1001E000C12F3D6C74319ABD56833DDA3D00C77F07
:1001F00011BED9E4BB4C3E916BAAAABE00000080A0
:100200003F05A84CCDB2D44EB93836A9020C50B92E
:10021000918688083CA6AAAA2ABE000000803F0753
:10022000634236B79BD8A71A39685618AEBAAB5591
:100230008C1D3CB7CC5763BD6DEDFD753EF6177256
:1002400031BF000000803F08000000BE9224491228
:100250003EABAAAA2ABECDCCCC4C3E00000080BE4C
:10026000ABAAAAAA3E00000000BF000000803F0029
:1002700000000000084178D3BB4387D1133D190E1D
:100280003CC3BD4282AD2B3E68EC8276BED98FE185
:10029000A93E4C80EFFFBE01C4FF7F3F000000007D
:1002A00000000D94056D0D9484730D94C3600D943E
:1002B000173B0D9418650D94753B0D94203D0D94DE
:1002C000604A0D9498090D94CC100D94D94A0D9460
:1002D000FE290D942D650D94EE7B0D9431630D94E4
:1002E00091060D94C7730D94243D0D94CB020D948B
:1002F00094640D94BF6F0D9403650D943E530D945B
:10030000DC4A0D9430090D94B2800D94C05F0D94B9
:100310001C730D943D3B0D940A650D94875E0D94FE
:10032000455F0D9409720D94D6020D941F650D94CE
:10033000A95F0D94A84E0D9469040D94A6520D94D6
:10034000E84A0D9446520D9483960D94E7640D94FB
:1003500047800D9405600D94A5640D94954A0D9405
:10036000617C0D94BE020D94984A0D949B4A0D94A5
:10037000A8640D94EE640D94355F0D94243B0D94A8
:10038000E0A10D94223A0D94A0060D9454070D940B
:100390004E080D9434600D9400720D94714E0D94BE
:1003A000B35F0D94BF4A0D946D290D94A74A0D9427
:1003B000093B0D94A3070D94E0280D94B34A0D94C6
:1003C0001F100D9492540D94A8060D94754A0D9427
:1003D00026650D94414A0D94C8080D9411650D943D
:1003E000386C0D94FC640D942E6F0D94FB3A0D94B3
:1003F000F5640D9496280D9497640D9497060D94CA
:100400005F3B0D947A150D941C6C0D94263D0D9454
:100410005B520D94D15F0D9412720D94DA220D94FB
:100420007D040D9480730D9426730D94BC220D945D
:100430001B720D94634E0D94546E0D94223D0D94D9
:100440007C730D94395F0D94363B0D944D4A0D9499
:10045000C7800D942F536E616E00696E66004E4129
:100460004E494E495459494E46CDCCCC3D0AD7232E
:100470003C17B7D13877CC2B329595E6241FB14F76
:100480000A000020410000C84200401C4620BCBEBB
:100490004CCA1B0E5AAEC59D7400407A10F35A0028
:1004A000A0724E18090010A5D4E80000E87648179D
:1004B0000000E40B54020000CA9A3B000000E1F582
:1004C00005000080969800000040420F000000A048
:1004D0008601000000102700000000E80300000073
:1004E000006400000000000A00000000000100009D
:1004F0000000002C76D888DC674F0823DFC1DFAE10
:1005000059E1B1B796E5E3E453C63AE651997696D8
:10051000E8E6C28426EB898C9B62ED407C6FFCEFA1
:10052000BC9C9F40F2BAA56FA5F490055A2AF75CCF
:10053000936B6CF9676DC11BFCE0E40D47FEF52081
:10054000E6B500D0ED902E03009435770500808449
:100550001E080000204E0A000000C80C333333335D
:100560000F986E12831141EF8D2114893BE65516C9
:10057000CFFEE6DB18D1844B381BF77C1D901DA401
:10058000BBE424203284725E228100C9F124ECA1F4
:10059000E53D276364696E6F70737578585B004141
:1005A0006476616E6365204B3D004B206F7574204F
:1005B0006F6620616C6C6F7765642072616E676531
:1005C0002100200A200A20004D32323020532569B4
:1005D00000255346696C616D656E74207365747493
:1005E000696E67733A2044697361626C65640A00DE
:1005F000255346696C616D656E742073657474690A
:100600006E67733A0A25532020204D323030204443
:10061000252E32660A002553526574726163743A5E
:1006200020533D4C656E67746820286D6D29204607
:100630003A537065656420286D6D2F6D29205A3AF4
:10064000205A4C69667420286D6D290A2553202094
:10065000204D3230372053252E32662046252E324B
:1006600066205A252E32660A25535265636F7665D9
:10067000723A20533D4578747261206C656E6774E0
:100680006820286D6D2920463A53706565642028DE
:100690006D6D2F6D290A25532020204D32303820D2
:1006A00053252E32662046252E32660A2553417583
:1006B000746F2D526574726163743A20533D30201B
:1006C000746F2064697361626C652C203120746FD3
:1006D00020696E74657270726574206578747275C5
:1006E00064652D6F6E6C79206D6F76657320617314
:1006F000207265747261637473206F722072656317
:100700006F7665726965730A25532020204D32305B
:1007100039205325640A00255350494420686561F7
:10072000746265642073657474696E67733A0A2530
:10073000532020204D3330342050252E326620495E
:10074000252E32662044252E32660A002553504954
:10075000442073657474696E67733A0A25532020C8
:10076000204D3330312050252E32662049252E323F
:10077000662044252E32660A002553537465707333
:100780002070657220756E69743A0A255320204DD9
:1007900039322058252E32662059252E3266205AAD
:1007A000252E32662045252E32660A255355537470
:1007B0006570207265736F6C7574696F6E3A200A8C
:1007C0002553204D33353020582564205925642089
:1007D0005A2564204525640A25534D6178696D7555
:1007E0006D20666565647261746573202D206E6F7F
:1007F000726D616C20286D6D2F73293A0A25532084
:10080000204D3230332058252E32662059252E3285
:1008100066205A252E32662045252E32660A25533B
:100820004D6178696D756D2066656564726174658A
:1008300073202D20737465616C746820286D6D2F92
:1008400073293A0A255320204D3230332058252E63
:1008500032662059252E3266205A252E32662045D2
:10086000252E32660A25534D6178696D756D2061BC
:100870006363656C65726174696F6E202D206E6FA5
:10088000726D616C20286D6D2F7332293A0A2553E1
:1008900020204D3230312058256C752059256C753B
:1008A000205A256C752045256C750A25534D6178B5
:1008B000696D756D20616363656C65726174696FE4
:1008C0006E202D20737465616C746820286D6D2F07
:1008D0007332293A0A255320204D323031205825D1
:1008E0006C752059256C75205A256C752045256C32
:1008F000750A2553416363656C65726174696F6E37
:100900003A20503D7072696E742C20523D726574AD
:10091000726163742C20543D74726176656C0A2593
:100920005320204D3230342050252E32662052255F
:100930002E32662054252E32660A25534164766194
:100940006E636564207661726961626C65733A20DA
:10095000533D4D696E20666565647261746520283B
:100960006D6D2F73292C20543D4D696E207472617A
:1009700076656C20666565647261746520286D6DAE
:100980002F73292C20423D6D696E696D756D207342
:1009900065676D656E742074696D6520286D7329B7
:1009A0002C20583D6D6178696D756D205859206A0D
:1009B00065726B20286D6D2F73292C20205A3D6D98
:1009C0006178696D756D205A206A65726B20286D9B
:1009D0006D2F73292C2020453D6D6178696D756DF3
:1009E0002045206A65726B20286D6D2F73290A25BA
:1009F0005320204D3230352053252E326620542589
:100A00002E32662042252E32662058252E32662050
:100A100059252E3266205A252E32662045252E3243
:100A2000660A2553486F6D65206F6666736574208E
:100A3000286D6D293A0A255320204D323036205832
:100A4000252E32662059252E3266205A252E3266F2
:100A50000A004625642025640A004D4D55203C3D82
:100A60002027462564202564270A00504944204158
:100A700075746F74756E652066696E6973686564F8
:100A8000212050757420746865206C617374204B4C
:100A9000702C204B6920616E64204B6420636F6E64
:100AA0007374616E74732066726F6D2061626F760D
:100AB0006520696E746F20436F6E66696775726139
:100AC00074696F6E2E6800504944204175746F74CC
:100AD000756E65206661696C6564212074696D6559
:100AE0006F75740020403A00543A00423A00504971
:100AF00044204175746F74756E65206661696C651C
:100B000064212054656D706572617475726520741E
:100B10006F6F206869676800204B643A2000204BA3
:100B2000693A2000204B703A200020436C617373B7
:100B300069632050494420002054753A2000204B1E
:100B4000753A2000206D61783A2000206D696E3A78
:100B5000200020643A200020626961733A2000433B
:100B600061703A25533A25630A004155544F524566
:100B7000504F52545F504F534954494F4E004155C6
:100B8000544F5245504F52545F46414E53004155C9
:100B9000544F5245504F52545F54454D5000005AE7
:100BA00030005A3100593000593100583000583166
:100BB00000456E642073746F707320646961670010
:100BC00044656C6574696F6E206661696C65642C40
:100BD0002046696C653A200046696C652064656C46
:100BE000657465643A004E6F7420534420707269D6
:100BF0006E74696E67005072696E742073617665F9
:100C000064005344207072696E742070617573655E
:100C100064004F4B004241440052414D426F204618
:100C2000414E200043524153485F43414E43454C9F
:100C30000043524153485F5245434F56455200438B
:100C4000524153485F5245434F5645520022283285
:100C500029004475706C696361746520542D636F5D
:100C600064652069676E6F7265642E00496E7661F7
:100C70006C6964205420636F64652E00556E6B6E42
:100C80006F776E204D20636F64653A202573200ACC
:100C9000006E6F2076616C696420636F6D6D616EAC
:100CA00064002C20002C20002C20006E2F61002CD2
:100CB00020002C20002C20006E2F6100503A00579D
:100CC00061697420666F722050494E4441207461FE
:100CD000726765742074656D706572617475726594
:100CE0003A004155544F004C414E472053454C204B
:100CF000464F5243454400256925250A00256925AC
:100D0000250A002228312900303030303030303090
:100D10002D303030302D303030302D303030302DDF
:100D200030303030303030303030303000205555B9
:100D300049443A0031002045585452554445525FC9
:100D4000434F554E543A00507275736120693320F9
:100D50004D4B335300204D414348494E455F545954
:100D600050453A00312E3000206261736564206F77
:100D70006E204D61726C696E204649524D5741524A
:100D8000455F55524C3A68747470733A2F2F6769F7
:100D9000746875622E636F6D2F7072757361336442
:100DA0002F50727573612D4669726D77617265207F
:100DB00050524F544F434F4C5F56455253494F4E3C
:100DC0003A004649524D574152455F4E414D453AD2
:100DD00050727573612D4669726D7761726520007E
:100DE0004D31313320530020423A0020453A00541F
:100DF0003A006F6B20006E2F61003F546F7368697B
:100E0000626120466C61736841697220476574496C
:100E100050206661696C65640A002569206D696E01
:100E20002C2025692073656300496E76616C6964C6
:100E3000204D20636F64653A202573200A00556EAB
:100E40006B6E6F776E204720636F64653A20257361
:100E5000200A004D65736820626564206C657665C4
:100E60006C696E67206E6F74206163746976652E9D
:100E7000002020000A4D6561737572656420706FF3
:100E8000696E74733A000A5A207365617263682050
:100E90006865696768743A20004E756D20582C5952
:100EA0003A2000206D6963726F6E73004578636548
:100EB000737369766520626564206C6576656C691C
:100EC0006E6720636F7272656374696F6E3A20009B
:100ED000426564206C6576656C696E672066616941
:100EE0006C65642E2053656E736F7220747269672F
:100EF000676572656420746F6F20686967682E008B
:100F0000426564206C6576656C696E672066616910
:100F10006C65642E2053656E736F72206469736311
:100F20006F6E6E6563746564206F72206361626CBE
:100F3000652062726F6B656E2E0050494E444120F1
:100F400070726F62652063616C6962726174696F4F
:100F50006E20737461727400473238205730004E2F
:100F60006F2050494E444120746865726D697374F6
:100F70006F7200736574006E6F7A7A6C65004D4213
:100F80004C0046520042656174004C7A004C616E20
:100F900067005265760046697200534E20696E768E
:100FA000616C696400534E004D3238005245534520
:100FB00054004D4D55524553004D32340075766CFA
:100FC0006F007468780046414E0046414E50494ECD
:100FD0005453540050524E0050696E6700505255A1
:100FE0005341005345545F43484F505F00534554AD
:100FF0005F535445505F005345545F574156455F1A
:1010000000544D435F0043524153485F43414E43B8
:10101000454C0043524153485F5245434F56455259
:101020000043524153485F444554454354454400AE
:1010300043524153485F004D3120004D30004D3147
:101040003137004C616E677561676520757064614A
:1010500074652E003B53006164635F696E697400C0
:101060000A204F726967696E616C205072757361F6
:101070002069330A202020507275736120526573F5
:10108000656172636800200A200A200A2000536507
:101090007276696365207072657000416C6C2044E3
:1010A000617461005368697070696E672070726561
:1010B000700053746174697374696373004C616E7A
:1010C00067756167650045524153494E4720616C21
:1010D0006C206461746100466163746F72792052A0
:1010E000455345540044495341424C454400454E04
:1010F00041424C454400202873656E736F72206234
:101100006F617264207265766973696F6E3A2553F8
:10111000290A004653656E736F7220255300494EAD
:101120005434004D4B33534D4D553253004E4F4DBB
:101130004B3353002E014E4F4354554100414C5404
:1011400046414E004D617220323020323032310043
:10115000436F6D70696C65643A2000286E6F6E6530
:101160002C2064656661756C7420636F6E666967B8
:1011700029004D6172203230203230323120313638
:101180003A34323A34330020332E392E332D33356E
:10119000353600737461727400534E20757064614B
:1011A0007465206661696C656400534E20757064D7
:1011B0006174656400416E206572726F7220776899
:1011C000696C652077726974696E6720746F20742A
:1011D000686520534420436172642E002055706C72
:1011E0006F616420696E2070726F6772657373003F
:1011F000205A3A0020593A0020583A0043524153AD
:10120000485F44455445435445445859004352416E
:1012100053485F4445544543544544590043524163
:1012200053485F444554454354454458004D323972
:101230000078797A63616C5F6D656173737572654F
:101240005F656E7465720A0078797A63616C5F73AA
:10125000706972616C382063783D25642063793D44
:101260002564207A303D256420647A3D256420720F
:1012700061646975733D25642061643D25640A00DD
:1012800078797A63616C5F7365617263685A206E06
:101290006F207369676E616C0A20783D256C64204D
:1012A000793D256C64207A3D256C640A00204F4E00
:1012B0002D5349474E414C20617420783D256420D0
:1012C000793D2564207A3D25642061643D25640ACA
:1012D0000078797A63616C5F7365617263685A2024
:1012E000783D256C6420793D256C64207A3D256C21
:1012F000640A0025640A005363616E20636F756E93
:1013000074646F776E3A20000A002530327800202E
:101310005B25662025665D206D6D207061747465A7
:10132000726E2063656E7465720A00205B2566200C
:1013300025665D5B25665D206D6D2064697665724E
:1013400067656E63650A000000F000F801FC03FEAB
:1013500007FE07FE07FE07FC03F801F0000000008F
:10136000000000F000F801FC03FC03FC03FC03F8A0
:1013700001F0000000000073697A656F6628626CF6
:101380006F636B5F627566666572293D25640A004E
:1013900078797A63616C5F6D656173737572655F8F
:1013A0006C656176650A0078797A63616C5F66695D
:1013B0006E645F6265645F696E64756374696F6EA5
:1013C0005F73656E736F725F706F696E745F78794B
:1013D00020783D256C6420793D256C64207A3D257C
:1013E0006C640A00203C20005741524E494E473A57
:1013F0002046726F6E7420706F696E74206E6F7409
:1014000020726561636861626C652E205920636F8C
:101410006F7264696E6174653A00000000404100BB
:1014200000C04000005C430000C04000005C43007E
:101430000046430000404100004643497465726124
:1014400074696F6E3A200043616C696272617469FD
:101450006F6E206661696C65642120436865636B0B
:1014600020746865206178657320616E64207275F0
:101470006E20616761696E2E007C3C3E3F2F2A2200
:101480005C0022206661696C65643A20427566667C
:1014900065722066756C6C21002200256920686FDA
:1014A000757273202569206D696E757465730054BB
:1014B000494D454F55543A004D3131300046756C19
:1014C0006C205258204275666665720020423A00D0
:1014D00020453A00543A00494E5434007265636F17
:1014E0007665725F6D616368696E655F7374617460
:1014F000655F61667465725F706F7765725F70615A
:101500006E69632C20696E697469616C20005052A9
:101510005553412075766C6F004734205330004D91
:1015200032362053256C75004D3130362053004D36
:101530003232302053256400473120462564004D67
:101540003832004739322045004731204525302EBA
:101550003366204632373030004D3230342050254B
:10156000662052256620542566004731205A25669C
:10157000005052555341204D424C205631004731C6
:1015800020582566205925662046333030300050DB
:101590006F736974696F6E20726561642066726F23
:1015A0006D20656570726F6D3A004D323320257382
:1015B000002E67636F002C20666565646D756C7422
:1015C00069706C793A0046656564726174653A00C9
:1015D00047312045252D302E3366204632373030B6
:1015E0000047312045352046313230004D38330038
:1015F0004D31303920532564004D31393020532589
:1016000064004D313034205325640047323820586F
:101610002059004731205A252E3366204638303075
:10162000004731205A252D302E33662046252D3097
:101630002E33660047312045252D302E3366204657
:1016400032373030004D3833000000211042206323
:10165000308440A550C660E770088129914AA16B8B
:10166000B18CC1ADD1CEE1EFF13112100273325223
:1016700022B5529442F772D662399318837BB35ADB
:10168000A3BDD39CC3FFF3DEE362244334200401F3
:1016900014E664C774A44485546AA54BB52885092B
:1016A00095EEE5CFF5ACC58DD553367226111630C3
:1016B00006D776F6669556B4465BB77AA71997387B
:1016C00087DFF7FEE79DD7BCC7C448E5588668A703
:1016D000784008611802282338CCC9EDD98EE9AFCB
:1016E000F9488969990AA92BB9F55AD44AB77A9663
:1016F0006A711A500A333A122AFDDBDCCBBFFB9E1B
:10170000EB799B588B3BBB1AABA66C877CE44CC532
:101710005C222C033C600C411CAEED8FFDECCDCD6A
:10172000DD2AAD0BBD688D499D977EB66ED55EF402
:101730004E133E322E511E700E9FFFBEEFDDDFFCBA
:10174000CF1BBF3AAF599F788F8891A981CAB1EB5F
:10175000A10CD12DC14EF16FE18010A100C230E388
:10176000200450254046706760B9839893FBA3DA44
:10177000B33DC31CD37FE35EF3B1029012F322D2D8
:10178000323542145277625672EAB5CBA5A89589D4
:10179000856EF54FE52CD50DC5E234C324A0148128
:1017A000046674476424540544DBA7FAB79987B8E4
:1017B000975FE77EF71DC73CD7D326F2369106B078
:1017C0001657667676154634564CD96DC90EF92FE4
:1017D000E9C899E9898AB9ABA944586548067827C8
:1017E00068C018E1088238A3287DCB5CDB3FEB1E84
:1017F000FBF98BD89BBBAB9ABB754A545A376A1618
:101800007AF10AD01AB32A923A2EFD0FED6CDD4D13
:10181000CDAABD8BADE89DC98D267C076C645C4567
:101820004CA23C832CE01CC10C1FEF3EFF5DCF7C23
:10183000DF9BAFBABFD98FF89F176E367E554E74B7
:101840005E932EB23ED10EF01E252E313053200075
:101850002563252D31382E31387325630025632506
:101860002D2E31365320002563252E3135533A2550
:101870007325336400252D32302E3230530A004553
:101880007872656D65207370616E206F6620746874
:1018900065205A2076616C75657321006F6B0A00B4
:1018A00073746172740A004D4D5532206669726D11
:1018B000776172652076657273696F6E20696E76E6
:1018C000616C69642E205265717569726564207659
:1018D000657273696F6E3A206275696C64206E750B
:1018E0006D626572202564206F7220686967686583
:1018F000722E004D4D55203D3E20276F6B270A006C
:101900004D4D55203D3E20276F6B270A0025640072
:101910004D4D55203D3E20276F6B272C207265735F
:10192000756D65207072696E740A004D4D55207298
:101930006574727920617474656D7074206E722E96
:101940002025640A004D4D55203D3E20276F6B2712
:101950000A00410A004D4D55203C3D202741270AF1
:10196000004D363030004D363030204155544F0058
:101970002568687500410A004D4D55203C3D2027E3
:1019800041270A0050300A004D25640A004D4D558C
:10199000203C3D20274D2564270A0057300A004D82
:1019A0004D55203C3D20275730270A0053330A006D
:1019B0004D4D55203C3D20275333270A0052300A15
:1019C000004D4D55203C3D20275230270A004B2525
:1019D000640A004D4D55203C3D20274B2564270AC5
:1019E000004525640A004D4D55203C3D20274525E6
:1019F00064270A0055300A004D4D55203C3D2027F4
:101A00005530270A0043300A004D4D55203C3D20FB
:101A1000274330270A004C25640A004D4D55203CD1
:101A20003D20274C2564270A005425640A004D4DAB
:101A300055203C3D2027542564270A004D4D552054
:101A40002D20454E41424C454400256868750050A4
:101A5000300A004D310A004D4D55203C3D20274DA8
:101A600031270050300A004D4D552076657273695C
:101A70006F6E2076616C6964004D4D55203D3E20AF
:101A80002725646F6B270A0025750053320A004D25
:101A90004D55203C3D2027533227004D4D55203DCC
:101AA0003E202725646F6B270A002575004D4D5594
:101AB000206E6F7420726573706F6E64696E67203C
:101AC0002D2044495341424C45440053310A004DB6
:101AD0004D55203C3D2027533127004D4D55203D8D
:101AE0003E20277374617274270047312058352EC9
:101AF000302045342E302046313030302E300047F3
:101B000031205A302E32302046313030302E3000E5
:101B10004731205835352E30204532352046313476
:101B200030302E3000473120592D322E30204631B2
:101B30003030302E3000473120583234302E3020B3
:101B40004532352E30202046323230302E3000479C
:101B500039322045302E30004731205A302E332084
:101B600046313030302E30004731205835352E3058
:101B70002045382E302046323030302E300047316C
:101B80002058352E30204533322E30204631383023
:101B9000302E30004731205835352E302045333235
:101BA0002E302046313037332E3000473120463436
:101BB000303030004D323034205331303030004737
:101BC00031205A352046373230302E303030004701
:101BD0003120452D312E35303030302046323130F5
:101BE000302E3030303030004D383300473930003F
:101BF000473231004739322045302E3000473120FE
:101C0000583530205935352045332E363237373365
:101C10000047312058323030205935352045302E9C
:101C20003439333836004731205832303020593774
:101C3000352045332E36323737330047312058357B
:101C400030205937352045302E3439333836004767
:101C50003120583530205939352045332E3632372A
:101C6000373300473120583230302059393520453C
:101C7000302E343933383600473120583230302056
:101C8000593131352045332E36323737330047311D
:101C90002058353020593131352045302E343933F4
:101CA00038360047312058353020593133352045FA
:101CB000332E363237373300473120583230302018
:101CC000593133352045302E3636313734004731DF
:101CD000205832303020593135352045322E3632B9
:101CE00037373300473120583130302059313535BE
:101CF00020453200473120583735205931353520BD
:101D000045322E35004731204631303830004731DA
:101D1000205A302E3135302046373230302E303098
:101D20003000473120583530205931353500252DC8
:101D30003773003A200025642F3600252D323053AA
:101D400000203A2000252D323073004739322045DB
:101D5000302E3000473238004D313039004D3139A6
:101D600030004D31303700542564004731205A305F
:101D70002E342046313030302E3000473120592D5E
:101D8000332E302046313030302E30004D38330085
:101D9000473120583130302E30204531322E352019
:101DA00046313030302E30004731205836302E301A
:101DB0002045392E302046313030302E3000941BF3
:101DC0007E1B681B581B4F1B361B251B101BFF1A45
:101DD000EA1AF41BF01BEC1BE81BCF1BBF1BB41B48
:101DE000AB1B473120583530205933352045252D40
:101DF0002E336600221D0E1D051DF41CE41CCE1C96
:101E0000B81CA31C8E1C781C631C4F1C3B1C261C7E
:101E1000111CFD1B496E76616C6964205049442099
:101E200063616C2E20726573756C74732E204E6F17
:101E3000742073746F72656420746F20454550522E
:101E40004F4D2E004D353030004731205A3135206E
:101E50004631353030004739310047312058353070
:101E60002059313930204530204637303030004756
:101E70003930004D3834004D37303220430047317F
:101E8000205831302059313830204634303030003D
:101E90004731205A31302046313330302E30303007
:101EA000004D313430205330004D31303420533028
:101EB00000473120452D302E303735303020463226
:101EC0003130302E3030303030004D313037002559
:101ED000530A20252D31362E313653252D33640AF1
:101EE00020252D31362E313653252D3364002553D0
:101EF0000A20252D31362E313653252D33640A2004
:101F0000252D31362E313653252D33640A20252DCB
:101F100031362E313653252D33640025530A2025C2
:101F20002D31362E313653252D33640A20252D319F
:101F3000362E313653252D33640A20252D372E3782
:101F4000535820252D336420205920252D3364003B
:101F500057697A6172642073746174653A202564EC
:101F60000A004578706572696D656E74616C004633
:101F700073656E736F7220446574656374696F6E08
:101F80000044697361626C65206661726D206D6FDB
:101F90006465004D383400506C656173652072656E
:101FA0007374617274004D494E54454D50004D4953
:101FB0004E54454D502042454400746D63323133D8
:101FC000305F686F6D655F656E74657228617865F6
:101FD000735F6D61736B3D307825303278290A006C
:101FE000746D63323133305F686F6D655F6578693A
:101FF0007420746D63323133305F73675F686F6D67
:10200000696E675F617865735F6D61736B3D307892
:10201000253032780A00726573756C742076616CB5
:1020200075653A2025640A0020693D2532642063E5
:102030006E743D2532642076616C3D2532640A0061
:10204000636C7573746572733A0020693D25326460
:1020500020737465703D2532640A00736F72746575
:10206000642073616D706C65733A007B5B50524EF7
:102070003A39395D007B5B50524E3A355D007B5BEF
:1020800050524E3A305D007B5B50524E3A395D0003
:102090007B5B50524E3A385D007B5B5245533A3081
:1020A0005D5B46494C3A007B5B5245533A315D5B80
:1020B00046494C3A005B50524E3A005B50464E3A0D
:1020C000305D005B4449413A005D5B4154423A0057
:1020D0005D5B4154303A005D5B5354423A005B53C0
:1020E00054303A00473830004D3435004D343520F7
:1020F0005A00473736000000000000110A04505211
:102100005553413344465700000021002400270066
:102110002A002D00300033000101000004010701F6
:102120000A0100002200250028002B002E003100AB
:10213000340002010000050108010B01000020002D
:102140002300260029002C002F003200000100008F
:10215000030106010901050505050705080808082A
:10216000020202020A0A080804040404010101012F
:10217000010101010303030303030303040707072A
:102180000C0C0C0C0C0C0C0C0202020206060606CF
:10219000060606060B0B0B0B0B0B0B0B07070A0AAD
:1021A0000A0A0A0A050505040404080801021020A9
:1021B000200808102040102040800201020108047D
:1021C0000201010204081020408080402010080411
:1021D000020180040201804020100804020108046A
:1021E00002010102040810204080010204081020AE
:1021F00040801008040880102040044080102040D7
:10220000048000000A0B02090C0D0E0807030401EC
:1022100000000000000000000000000000000000BE
:10222000000000000000000000000000000012118B
:10223000100000000000000000000000000000008E
:10224000000000000000000000000000000000008E
:102250000000000000000000773235783230636CF7
:102260005F63666D0A00773235783230636C5F6584
:102270006E7465720A0073746172740A00626F6F23
:10228000745F6170705F6D61676963203D307825B0
:1022900030386C780A00626F6F745F6170705F66CF
:1022A0006C616773203D3078253032780A00626FA8
:1022B0006F745F726573657276656420203D307857
:1022C000253032780A00626F6F745F636F70795FD8
:1022D00073697A65203D3078253034780A00626F62
:1022E0006F745F6473745F6164647220203D307842
:1022F0002530386C780A00626F6F745F7372635FA9
:102300006164647220203D30782530386C780A0092
:102310005553415254322072782046756C6C2121FD
:10232000210053657474696E67732053746F72650E
:10233000640053746F7265642073657474696E67AA
:1023400073207265747269657665640048617264B1
:10235000636F6465642044656661756C74205365C1
:102360007474696E6773204C6F61646564005632E3
:1023700000000000C8420000C8420000C8430080BE
:102380004F44000048430000484300004041000023
:10239000F0421405000014050000C8000000881376
:1023A00000000000AF440000AF4400000000000047
:1023B0000000204E00000000204100002041CDCC54
:1023C000CC3E000090400000000000000000000033
:1023D0000000CDCCCC3E3D0A8141FF08433EB09980
:1023E000AB438F42FC42E65A343F4C62B04500009A
:1023F00000000040400000344200000000000000E7
:102400000000000041000000E03F0000C842000062
:10241000C842000040410000F042E8030000E80329
:102420000000C800000088130000101010200000F9
:10243000AF44627573793A20706175736564206684
:102440006F7220696E70757400627573793A2070CE
:10245000617573656420666F7220757365720062C2
:102460007573793A2070726F63657373696E670074
:10247000FFFFFFFF78797A63616C5F737069726147
:102480006C322063783D25642063793D2564207A91
:10249000303D256420647A3D25642072616469754D
:1024A000733D25642061643D25640A0050617474A5
:1024B00065726E2063656E746572205B25662025EB
:1024C000665D2C206D6174636820256625250A00F1
:1024D000205B25662C2025665D5B25665D20666990
:1024E0006E616C20636972636C650A00205B25660F
:1024F0002C2025665D5B25665D20636972636C65D3
:102500000A00746D63323133305F676F746F5F73CD
:1025100074657020256420256420256420256420AE
:102520000A004E6F203078464620726563656976F2
:1025300065640053656E64696E67203078464600B6
:102540004D36303000257500593A202575202D3E36
:10255000202E2E2E00257500583A202575202D3E60
:10256000202E2E2E004D656173757265642066699C
:102570006C616D656E742073656E736F72206C6F25
:1025800077206C6576656C3A2025342E3266560AC3
:10259000004D656173757265642066696C616D6577
:1025A0006E742073656E736F722068696768206C43
:1025B0006576656C3A2025342E3266560A004578D9
:1025C00074722066616E2073706565643A202564BC
:1025D0000A005072696E742066616E2073706565C2
:1025E000643A2025640A005465737420323A004529
:1025F0007874722066616E2073706565643A202578
:10260000640A005072696E742066616E2073706592
:1026100065643A2025640A005465737420313A00D9
:102620004D38340025632041584953205347313DEC
:1026300025640A00486F74656E6400426564005A40
:1026400000590058002D2D2D2D2D2D2D2D2D2D2DEA
:102650002D2D2D2D2D2D2D2D2D004F4B0024F4D45F
:102660003050C38E20C2A24017828B7011127A9113
:102670000D816CD90AA861E108C75866076151430A
:10268000061E4B5D05C145A7041A411104093D987A
:1026900003713931034036DB0265339102D4305483
:1026A00002802E1D02632CEE01752AC501B028A000
:1026B00001102781018F2564012B244B01E0223476
:1026C00001AC211F018D200D01801FFC00841EED37
:1026D00000971DDF00B81CD200E61BC600201BBC03
:1026E00000641AB200B219A8000A19A0006A189969
:1026F00000D117910040178B00B516840031167E6B
:1027000000B31579003A157300C7146F0058146AA6
:1027100000EE1366008813630025135E00C7125B8A
:10272000006C12570015125400C111510070114F66
:102730000021114B00D61049008D1047004610446F
:102740000002104200C00F4000800F3E00420F3CCC
:1027500000060F3B00CB0E3800930E37005C0E35A1
:1027600000270E3400F30D3200C10D3100900D3002
:1027700000600D2E00320D2D00050D2C00D90C2B04
:1027800000AE0C2900850C29005C0C2700350C27B5
:10279000000E0C2600E80B2400C40B2400A00B2321
:1027A000007D0B23005A0B2100390B2100180B2050
:1027B00000F80A1F00D90A1E00BB0A1E009D0A1D50
:1027C00000800A1D00630A1C00470A1B002C0A1B1C
:1027D00000110A1A00F7091A00DD091900C40919C5
:1027E00000AB091900920917007B0918006309174B
:1027F000004C09160036091600200916000A0915B2
:1028000000F5081500E0081400CC081400B80814FE
:1028100000A4081400900813007D0812006B081330
:10282000005808120046081200340811002308114D
:10283000001208110001081100F0071000E0071055
:1028400000D0071000C0071000B0070F00A107104C
:102850000091070E0083070F0074070F0065070E35
:102860000057070E0049070E003B070D002E070E0C
:102870000020070D0013070D0006070D00F9060CD8
:1028800000ED060D00E0060C00D4060C00C8060C96
:1028900000BC060C00B0060C00A4060B0099060C48
:1028A000008D060B0082060B0077060B006C060BF2
:1028B0000061060A0057060B004C060A0042060A91
:1028C0000038060A002E060A0024060A001A060A24
:1028D000001006090007060A00FD050900F40509B5
:1028E00000EB050900E2050900D9050900D005093A
:1028F00000C7050900BE050900B5050800AD0508BB
:1029000000A50509009C050800940508008C050831
:1029100000840508007C050800740508006C0507A4
:1029200000650508005D050700560508004E05070F
:102930000047050700400508003805070031050776
:10294000002A050700230507001C050600160507D9
:10295000000F0507000805060002050700FB040636
:1029600000F5040700EE040600E8040600E2040790
:1029700000DB040600D5040600CF040600C90406E7
:1029800000C3040600BD040600B7040600B1040538
:1029900000AC040600A6040600A00405009B040683
:1029A0000095040500900406008A040500850405CE
:1029B00000800406007A0405007504050070040513
:1029C000006B04050066040500610405005C040555
:1029D0000057040500520405004D04050048040595
:1029E00000430405003E0404003A040500350405D4
:1029F00000300404002C040500270404002304050F
:102A0000001E0404001A0404001604050011040446
:102A1000000D04040009040500040404000004047B
:102A200000FC030400F8030400F4030400F00304B2
:102A300000EC030400E8030400E4030400E00304E2
:102A400000DC030400D8030400D4030400D0030412
:102A500000CC030400C8030300C503030024F404EE
:102A6000D9201BC40C5C0E9804C4095F0265077171
:102A700001F405F900FB04B30048048700C10369B1
:102A8000005803550003034500BE023A008402319A
:102A90000053022A002902250004022000E4011C40
:102AA00000C8011900AF0117009801140084011338
:102AB00000710110006101100051010E0043010D71
:102AC0000036010B002B010B0020010B0015010942
:102AD000000C01090003010800FB000800F30008D6
:102AE00000EB000700E4000600DE000600D8000648
:102AF00000D2000600CC000500C7000500C200059A
:102B000000BD000400B9000400B5000400B10004D9
:102B100000AD000400A9000400A5000300A200030A
:102B2000009F0004009B0003009800030095000232
:102B30000093000300900003008D0002008B00034F
:102B40000088000200860002008400030081000269
:102B5000007F0002007D0002007B0002007900027D
:102B6000007700010076000200740002007200018C
:102B700000710002006F0002006D0001006C000295
:102B8000006A0001006900020067000100660001A0
:102B900000650001006400020062000100610001A4
:102BA00000600001005F0002005D0001005C0001A8
:102BB000005B0001005A00010059000100580001AB
:102BC00000570001005600010055000100540001AB
:102BD00000530000005300010052000100510001A9
:102BE00000500001004F0001004E0000004E0001A7
:102BF000004D0001004C0001004B0000004B0001A3
:102C0000004A00010049000100480000004800019E
:102C1000004700010046000000460001004500009A
:102C20000045000100440001004300000043000192
:102C3000004200000042000100410000004100018C
:102C400000400001003F0000003F0001003E000086
:102C5000003E0001003D0000003D0001003C00007E
:102C6000003C0000003C0001003B0000003B000174
:102C7000003A0000003A000100390000003900016C
:102C80000038000000380000003800010037000064
:102C90000037000100360000003600000036000159
:102CA0000035000000350000003500010034000050
:102CB0000034000000340001003300000033000045
:102CC0000033000100320000003200000032000139
:102CD0000031000000310000003100010030000030
:102CE0000030000000300001002F0000002F000025
:102CF000002F0000002F0001002E0000002E000019
:102D0000002E0001002D0000002D0000002D00000D
:102D1000002D0001002C0000002C0000002C000001
:102D2000002C0001002B0000002B0000002B0000F5
:102D3000002B0001002A0000002A0000002A0000E9
:102D4000002A0001002900000029000000290000DD
:102D500000290000002900010028000000280000D0
:102D600000280000002800000028000100270000C3
:102D700000270000002700000027000000270001B6
:102D800000260000002600000026000000260000AB
:102D9000002600010025000000250000002500009D
:102DA000002500000025000000250001002400008F
:102DB0000024000000240000002400000024000182
:102DC0000023000000230000002300000023000077
:102DD0000023000000230000002300010022000067
:102DE000002200000022000000220000002200005B
:102DF000002200010021000000210000002100004D
:102E0000002100000021000000210000002100013D
:102E10000020000000200000002000000020000032
:102E20000020000000200000002000000020000121
:102E3000001F0000001F0000001F0000001F000016
:102E4000001F0000001F0000001F0001001E000006
:102E5000001E0000001E0000001E000000657272CF
:102E60006F723A20756E6B6E6F776E206D6F766540
:102E7000006E6F206D6F766500542D636F64650082
:102E8000756E6C6F6164006C6F6164006D6D755F71
:102E90006765745F726573706F6E7365202D206255
:102EA0006567696E206D6F76653A20006D6D755FA0
:102EB0006765745F726573706F6E73652829207221
:102EC000657475726E696E673A2025640A00556EE6
:102ED0006C6F6164696E672066696E6973686564AA
:102EE000203200556E6C6F6164203200556E6C6F3D
:102EF0006164696E672066696E6973686564203114
:102F000000556E6C6F61642031004D4D5520737417
:102F10006172747320726573706F6E64696E67009E
:102F20004D4D55206E6F7420726573706F6E6469BD
:102F30006E670046696C616D656E74206F757420F4
:102F40006F662072616E6765202564200A000000AC
:102F5000803F555585410000803F0000C84100007A
:102F60000040555505420000C03F000048420000A7
:102F7000204055558542000070C1ABAAA642000012
:102F800060C10000A0410000C0C00000204100005E
:102F90002041ABAA3A41000020C15555D540000060
:102FA00048C2555505424D373031204534004D3724
:102FB0003031204533004D373031204532004D3718
:102FC0003031204531004D373031204530004669E1
:102FD0006C616D656E74206E72206F7574206F6603
:102FE0002072616E67652100206661696C65642EE0
:102FF00000207375636365656465642E004D4D55EF
:103000002063616E5F6C6F61643A0041646469744F
:10301000696F6E616C206C6F616420617474656DA2
:103020007074206E722E2025640A001000C90210F0
:10303000012C014001220170011801B0010E01F0C4
:103040000104015002FA00B002F0003003E600D0A3
:1030500003DC009004D2007005C800A006BE00008A
:1030600008B400B009AA00D00BA000600E96006062
:10307000118C000015820020197800C01D6E00A080
:10308000226400B0275A00902C500000314600E026
:10309000343C0010383200903A2800603C1E00A0FA
:1030A0003D1400803E0A00203F0000457874727590
:1030B0006465722066616E20737065656420697353
:1030C000206C6F776572207468616E20657870651A
:1030D00063746564005072696E742066616E20735B
:1030E00070656564206973206C6F77657220746801
:1030F000616E206578706563746564004D494E5457
:10310000454D5020414D42004D415854454D5000D1
:103110004D415854454D5020424544004D4158546E
:10312000454D5020414D4200202D20496E76616C66
:103130006964206578747275646572206E756D625D
:10314000657220210070012C0190012701B001223D
:1031500001C0011D01F00118011002130130020E1F
:10316000016002090190020401C002FF000003FA9D
:10317000004003F5008003F000D003EB002004E6DC
:10318000007004E100E004DC004005D700C005D277
:10319000004006CD00D006C8008007C3003008BE3E
:1031A00000F008B900C009B400B00AAF00B00BAA23
:1031B00000D00CA500000EA000500F9B00C0109680
:1031C000005012910000148C00C0158700B01782C7
:1031D00000B0197D00D01B7800001E730040206EE7
:1031E0000090226900F024640040275F0090295A73
:1031F00000E02B5500102E500020304B00103246BE
:1032000000E033410090353C001037370070383211
:1032100000A0392D00B03A2800A03B2300603C1EDE
:1032200000103D1900903D1400103E0F00703E0A42
:1032300000C03E0500003F000090137D00B01578EF
:1032400000F0177300601A6E00F01C6900A01F6484
:103250000050225F0020255A00E0275500902A5098
:1032600000202D4B00A02F4600F031410010343CCF
:1032700000F0353700A037320020392D00603A28A1
:1032800000703B2300603C1E00203D1900C03D142F
:1032900000403E0F00A03E0A00F03E0500403F0007
:1032A00000703FFBFF903FF6FFB03FF1FFC03FECE7
:1032B000FFD03FE7FFE03FE2FFF03FDDFFF03FD808
:1032C000FF20484F54454E4420544845524D414CF0
:1032D0002052554E415741590020484541544245DE
:1032E0004420544845524D414C2052554E4157417F
:1032F0005900544845524D414C2052554E4157417A
:10330000590042454420544845524D414C205255A5
:103310004E415741590020544845524D414C20528E
:10332000554E415741592028205052454845415457
:1033300020484F54454E44290020544845524D41A1
:103340004C2052554E415741592028205052454853
:103350004541542048454154424544290050524576
:1033600048454154204552524F5200424544205056
:10337000524548454154204552524F5200457272C1
:103380003A2000207472696767657265642100489D
:10339000656174657273207377697463686564200E
:1033A0006F66662E20003A2000437573746F6D00BF
:1033B00054657874757200536D6F6F74680047318F
:1033C0002059252D2E32662045252D2E33660047A7
:1033D00031205825642059252D2E32662045252D73
:1033E0002E3366006673656E736F725F6368656324
:1033F0006B706F696E745F7072696E74006673656E
:103400006E736F722076302E3420696E206661757F
:103410006C742072616E676520342E362D3556200F
:103420002D20756E636F6E6E6563746564006673E0
:10343000656E736F7220696E20666F726269646474
:10344000656E2072616E676520312E352D335620F2
:103450002D20636865636B2073656E736F72003136
:103460002E3000312E3500554E4B4E4F574E004CEE
:10347000413130433A204C696E6561722041647677
:10348000616E6365206D6F64653A20004C41313098
:10349000433A2041646A757374656420452D4A651A
:1034A000726B3A2000000E1315110E00000004127A
:1034B0000912040000001C1F11111F000000061952
:1034C0001803130C00040E1F041C000000040A0A59
:1034D0000A0A11110E001F1511151F00000001032B
:1034E000161C0800000000110A04110A040C121234
:1034F0000C000000002563252D31382E313853256E
:1035000063005B25735D2563005B25535D256300C8
:103510002563252D31382E313853004D363030009B
:103520006673656E736F725F757064617465202D6C
:10353000204D3630300049522073656E736F722013
:103540006E6F7420726573706F6E64696E67202889
:10355000256429210A0020573A0020453A00543AB0
:10356000005A206C6976652061646A757374206FF7
:103570007574206F662072616E67652E20536574C6
:1035800074696E6720746F20302E20436C69636B02
:1035900020746F20636F6E74696E75652E005A20FB
:1035A0006C6976652061646A757374206F75742028
:1035B0006F662072616E67652E2053657474696E44
:1035C0006720746F203000252D392E39535B00257C
:1035D00063252D31382E3138732563005772697495
:1035E000696E6720746F2066696C653A20004669D1
:1035F0006C6520616C7265616479206F70656E65C1
:103600006400332E392E33007263006265746100EA
:10361000616C70686100646576004D203834004D3F
:103620003834004D3234004D323320257300052EDE
:103630002E0000007F4300805443000052430000EE
:103640000000000080C09A99193E000000000000B0
:1036500080C09A99193E0000A0400000A0400000E0
:10366000004025336420737465703D253264206DFD
:1036700073636E743D2534640A0000007F4300804C
:1036800058439AD95143FFFFFF20413A0020503A56
:10369000002042403A0020403A00202F00205400F1
:1036A000202F0020423A00202F00543A0020453AB3
:1036B00000205A3A0020593A0020453A00205A3A50
:1036C0000020593A00583A0067636F64655F4D37D0
:1036D000303120626567696E0A00202573253364E6
:1036E00001200A000A204952203A202020202020D0
:1036F0002025332E31665600205057523A20202084
:1037000020202025342E3166560A204245443A2096
:10371000202020202025342E3166560025530A20F3
:10372000582025640A20592025640025752E25750A
:103730002E25752E25750025730020005072696EA8
:1037400074657220495020416464723A0025730008
:103750002000466C617368416972204950204164C1
:1037600064723A004D4D5532202020202020204EFA
:103770002F410025642E25642E25642D256400200C
:1037800046573A0046696C2E2073656E736F72203F
:10379000762E3A004D6172203230203230323100C4
:1037A000453344763666756C6C0045494E53795FF7
:1037B00031306100315F37356D6D5F4D4B33002D1A
:1037C0002D2D2D2D2D2D2D2D2D2D2D0020726570A3
:1037D0006F20556E6B6E6F776E0020332E392E334F
:1037E0002D33353536004669726D776172653A0062
:1037F0004D373032004D373031004D373032004DCB
:1038000037303100464C4558202D20203234302F9F
:1038100035300050502020202D20203235342F31DB
:1038200030300048495053202D20203232302F3183
:1038300030300041425320202D20203235352F31A9
:1038400030300050564220202D20203231352F3785
:10385000350050432020202D20203237352F3131A4
:10386000300041534120202D20203236302F31307E
:10387000350050455420202D20203233302F38354C
:1038800000504C4120202D20203231352F36300081
:103890006E6F7A7A6C65202D20203235302F300003
:1038A0006661726D2020202D20203235302F383077
:1038B000004D3234004D3233202573006175746F32
:1038C00025692E670022206661696C65643A204292
:1038D00075666665722066756C6C2100456E717543
:1038E00065696E6720746F207468652066726F6EFC
:1038F000743A2022004572726F723A002200456EBF
:10390000717565696E6720746F20746865206672D2
:103910006F6E743A2022006563686F3A0045455027
:10392000524F4D204572726F72004D494E54454DB5
:103930005020424544206669786564004D494E54E4
:10394000454D5020484F54454E4420666978656483
:1039500000252D31322E313253252B382E31660081
:1039600045787472756465723A006D6D005900583F
:1039700000583A00593A005A3A002563252D313350
:103980002E313353252B352E33660022257322200A
:10399000004449525F45584954004449525F454EDE
:1039A0005445523A20257320222573220A00466985
:1039B0006C652073656C6563746564002053697A77
:1039C000653A200046696C65206F70656E65643AE3
:1039D00020004E6F772066726573682066696C659B
:1039E0003A20004E6F7720646F696E672066696CBD
:1039F000653A20002220706F73002220706172658A
:103A00006E743A2200535542524F5554494E452048
:103A100043414C4C207461726765743A22007472A1
:103A200079696E6720746F2063616C6C20737562B6
:103A30002D67636F64652066696C657320776974B0
:103A40006820746F6F206D616E79206C6576656C8F
:103A5000732E0046696C616D656E742073656E73BC
:103A60006F7220626F617264206368616E676520A7
:103A700064657465637465643A2072657669736918
:103A80006F6E25530A0054656D70657261747572AE
:103A9000652063616C6962726174696F6E20666132
:103AA000696C65642E20436F6E74696E756520774E
:103AB000697468207072657373696E6720746865D5
:103AC000206B6E6F622E0054656D70657261747547
:103AD00072652063616C6962726174696F6E2064E3
:103AE0006F6E652E20436F6E74696E756520776901
:103AF0007468207072657373696E672074686520DE
:103B00006B6E6F622E007B5B4552523A005D5B46E6
:103B100057523A005D5B54494D3A005D5B464E4D4D
:103B20003A005D5B46454D3A005D5B5043443A00C8
:103B30005B5446553A004D34340047323820570024
:103B4000200A200A20004739390044697361626CF9
:103B500065206661726D206D6F64653F0000BF0176
:103B6000A30111241FBECFEFD1E2DEBFCDBF00E025
:103B70000CBF14E0A0E0B2E0E1EBFEEC03E00BBF11
:103B800002C007900D92A835B107D9F729E1A8E541
:103B9000B4E001C01D92AA3DB207E1F71DE1C0EB00
:103BA000DDE100E006C021970109802FFE010F949E
:103BB00094B5CF3AD10780E00807A9F70F94D686CD
:103BC0000D94A3B60C9400002F923F924F925F92F7
:103BD0006F927F928F929F92AF92BF92CF92DF921D
:103BE000EF92FF920F931F93CF93DF93CDB7DEB782
:103BF000CE56D1090FB6F894DEBF0FBECDBF80916F
:103C00001305823061F483E08093130580911605DB
:103C1000882319F00E940EA002C00E94D5A08091B6
:103C2000B8109091B910892B11F40C941F5882E0B0
:103C300080935F028EE390E10E94FBE68823C1F04F
:103C400080916E0590916F056AE270E005960F9481
:103C5000EFB5009711F0DC011C9280916E059091F8
:103C60006F0505960E94DDCB87E08093891016C012
:103C70008BE390E10E94FBE6811117C087E390E19E
:103C80000E94FBE6811111C0A8C00E942C81809186
:103C9000BF15882309F495C01092891081E08093A4
:103CA0005F020F94E1820C941F5800916E051091F1
:103CB0006F0580E50E940FE7882309F489C00E9400
:103CC000F2E60F940CB26B017C01BB24B394672B1A
:103CD000682B692B09F4B12C83E50E940FE7882338
:103CE00091F00E94F2E620E030E04AE754E40F94BD
:103CF00068A40F940CB26B017C01AA24A394672BD7
:103D0000682B692B09F4A12C0E5F1F4F6AE270E04B
:103D1000C8010F94EFB5009711F0FC0110829801D3
:103D2000C9012F5F3F4FDC014C914032C9F326E0BF
:103D300020938910B11008C0A11006C02C91222335
:103D400019F00E94DDCB06C085EA9CE70E94FBF0DB
:103D50000E94F7CB81E08093C6051092C5050F94B1
:103D6000C6340E94AAEE6093461070934710809369
:103D7000481090934910C114D104E104F10409F4EE
:103D800084CF0E94AAEEC60ED71EE81EF91E84E05C
:103D900080935F020E94AAEE6C157D058E059F053B
:103DA00010F00C9461540F94653781110C94615498
:103DB0000F941F2E81E00F944F4480E00F949E36A5
:103DC000E9CF80EE9CE70E94FBF00E94F7CB66CF24
:103DD000B12CC12CD12C76017FCFC090A712D090EE
:103DE000A812860103541F4E46E050E060E370E1E4
:103DF000C8010F94E9A8892B09F0D9C081E290E1AC
:103E00000E94FBE6882309F49EC088E50E940FE724
:103E1000182F89E50E940FE7811112600F94C634B4
:103E20008091590401E0080F00935904811105C0E5
:103E300083EA95E10E94C2700EC048EC5FEA60E040
:103E400070E083EA95E10E943C70882331F0109283
:103E5000A3151092590401E007C0033049F71092EE
:103E6000A3151092590400E081E00F9401390F94DA
:103E7000F93882E00F949E3610FF15C086E69FE069
:103E80000F940CB061E0680F86E69FE00F942DB0B0
:103E900085E09FE00F9419B0BC016F5F7F4F85E014
:103EA0009FE00F9447B011FF15C088E69FE00F9484
:103EB0000CB061E0680F88E69FE00F942DB083E0BE
:103EC0009FE00F9419B0BC016F5F7F4F83E09FE0CC
:103ED0000F9447B081E00F94013982E00F949E3631
:103EE00081EC9BE70E94FBF00E94F7CB40E061E091
:103EF00081E00F94135E0F94C634002321F061E03B
:103F00008FE39CE01DC0E091FB0EF0E0EE0FFF1F81
:103F1000E655FB4E1182108281EA9BE70E94FBF07E
:103F200040E060E00F94E77E182F81E00F940139A4
:103F300061E0112319F081E39CE002C084E29CE07F
:103F40000E94D16EABCE83E190E10E94FBE6882314
:103F500079F060E070E080E89FE30E945F810E945A
:103F6000A4CB882309F49ACE81E08093150296CEE3
:103F700086E090E10E94FBE6882309F48FCE109240
:103F8000871081E08093150280911405811103C090
:103F90000F94B55383CE813009F080CE8BE097E744
:103FA0000E94E5E90E9406EB0E94BF6F77CE44E0D5
:103FB00050E061E070E1C8010F94E9A8892B09F095
:103FC00007C186010F531F4E49E050E067EF7FE0C5
:103FD000C8010F94E9A8892BC9F4F601E653FF4EF6
:103FE0001081153429F01855143008F057CE01C04F
:103FF00013E04AE050E060E070E0C60185539F4E58
:104000000F94A3A6812F0F943F6848CE49E050E05B
:104010006DEE7FE0C8010F94E9A8892B51F5F601F8
:10402000E653FF4E1081153429F01855143008F06E
:1040300035CE01C013E04AE050E060E070E0C60118
:1040400085539F4E0F94A3A6E12FF0E0E651FB4F5E
:1040500040E051E0008002C0569547950A94E2F78F
:10406000842F880F880F81506823812F0E9441F888
:1040700015CE49E050E063EE7FE0C8010F94E9A857
:10408000892B09F00BCEF601E653FF4E8081853473
:1040900041F018EAB12EB80EB3E0BB1508F4FECD1E
:1040A00002C0B3E0BB2EEB2CF12C4701880C991C0D
:1040B000F401E15CFD4F1081012F0F70712E72949D
:1040C000AFE07A22272D2770722E111F1127111FA2
:1040D00061816770660F162BF401E05CFD4F9081E3
:1040E000A92EA694A694A6943A2D3370A32E1A82D4
:1040F0001982C60185539F4EDC012C912223E1F1E8
:104100004AE050E0BE016F5F7F4F0F94A3A6062FD9
:104110000F7089819A81009779F1FC012081222317
:1041200059F14AE050E0BE016F5F7F4F0F94A3A6A4
:104130006770762E89819A810097F1F0DC012C91CD
:104140002223D1F04AE050E0BE016F5F7F4F0F9411
:10415000A3A6162F1F7089819A81009769F0FC0130
:104160002081222349F04AE050E0BE016F5F7F4F7B
:104170000F94A3A66370A62EF401E15CFD4F272DDA
:1041800027702295207F612F679566276795202BE2
:10419000262B2083212F26951181107E9A2D937036
:1041A000990F990F990F122B192B1183C7018A5D53
:1041B0009D4FD701A65DBD4FB70166517B4FFC01F6
:1041C00020814C91DB016C918B2D0E945AB466CDFD
:1041D0008DED9FE00E94FBE6882309F4F1C188ED94
:1041E0009FE00E94FBE6882381F08091FC0E8823EB
:1041F00009F454CD0E94AAEE6093B9157093BA15D4
:104200008093BB159093BC1549CD84ED9FE00E942F
:10421000FBE6882351F080916F068F9380916E06A4
:104220008F938EED9FE60C9491308AEC9FE00E9474
:10423000FBE6882309F43FC01092060F14E6C12C58
:10424000D12C76016F9A779864E170E080E090E07D
:104250000E9472EE0E944CEE4B015C01F8946F9844
:10426000679BFECF78940E944CEEDC01CB0188194D
:104270009909AA09BB09C816D906EA06FB0610F473
:104280006C017D011150F1F689E19CE00E94E5E9A5
:10429000B5EFCB16B1E0DB06E104F10418F085E1DF
:1042A0009CE002C082E19CE00E94E5E90E9406EBEE
:1042B0006F98779AF3CC86EC9FE00E94FBE6882308
:1042C00021F14091B1045091B2042CE3249FC0012C
:1042D000259F900D11249F938F934091AF0450918F
:1042E000B004249FC001259F900D11249F938F93AC
:1042F00087EC9FE69F938F930F9426AA0F900F90C1
:104300000F900F900F900F90C9CC82EC9FE00E940D
:10431000FBE6882319F01092F404C0CC8DEB9FE0EB
:104320000E94FBE6882349F060E085EA9FE00F9455
:104330002DB061E089EB9FE003CE82EB9FE00E940D
:10434000FBE6882319F00E94D48EA8CC8CEA9FE06B
:104350000E94FBE6882381F08AEA95E5DC018093E0
:10436000FC1F9093FD1FA093FE1FB093FF1F88E0DA
:104370008093FB1F0E94E6E68CE393E00E94FBE63D
:10438000882329F180916E0590916F0561E0039675
:104390000F94007A80911F1990912019A0912119F2
:1043A000B091221980939C1990939D19A0939E1906
:1043B000B0939F1987E199E10E94C8748C010E9413
:1043C000CDE90A30110531F70F94E66967CC88EA28
:1043D0009FE00E94FBE6882391F041E068EB71E0EA
:1043E00089E190E00E94FCCF81E0809312058091EA
:1043F0006E0590916F0504960F9431A14FCC85EA1C
:104400009FE00E94FBE68823A1F044E150E065E1D3
:104410007DE0CE0101960F94FCAF8C89882321F0BA
:104420008AE99FE00C943E52CE0101960F9473B638
:1044300035CC86E99FE00E94FBE6882319F08FE3E4
:1044400093E008C082E99FE00E94FBE6882329F000
:104450008AE493E00E9413EB21CC8DE89FE00E9458
:10446000FBE6811134C08AE89FE00E94FBE68823C6
:1044700071F081EA9DE00F940CB0EBE08E9FC001DB
:10448000112460E070E0805B924F0C946A5485E8E0
:104490009FE00E94FBE6882359F00E94AAEE6093F9
:1044A000B5157093B6158093B7159093B815F6CBE4
:1044B00082E89FE00E94FBE6882361F00F94F938C0
:1044C00040E060E070E084E690E00E94FCCF0E9453
:1044D000A3EFE4CB8EE79FE00E94FBE68823E1F0A8
:1044E00086E50E940FE7882309F4D8CB0F9406993C
:1044F00011E0892B09F410E00F94C634212F30E02D
:104500008091BF1490E02817390709F4C7CB1093A6
:10451000BF140E94E9F8C2CB87E79FE00E94FBE648
:10452000882309F4BBCB84E40E940FE78823A1F021
:104530000E94F2E620E030E04AE754E40F9468A4D9
:1045400020E030E040E05FE30F94A7B00F940CB29E
:10455000CB010F942B97A2CB83E79FE00E94FBE651
:10456000882311F40C946E548091FC0E882311F46E
:104570000C946E5480916E0590916F050296909305
:104580006F0580936E050E94F2E66B017C016FEF70
:1045900087EA9DE00F942DB020E030E04AE754E434
:1045A000C701B6010F9468A420E030E040E05FE36B
:1045B0000F94A7B00F940CB285EA9DE00C946A5456
:1045C00087E40E940FE7182F882311F40C947330AE
:1045D0000E94F2E60F9406B2AB01BC0150935B045B
:1045E00040935A044B34510509F43BC208F080C093
:1045F0004430510509F4A5C148F42091AD19423069
:10460000510509F48DC108F4C4C091C1453151056B
:1046100011F40C946D3058F44A30510509F4DEC1A0
:104620004B30510511F00C945B3080E0D8C14C3117
:10463000510509F4D8C14E31510511F00C945B308D
:1046400081E080939E060F94C63481E00F94585EFB
:104650008C0180E090E0A8E4B4E480935902909348
:104660005A02A0935B02B0935C0243E060E070E00A
:1046700080E291EC0E94F7FA7090F20E6090F30ED7
:104680005090F40E4090F50EB090EE0EA090EF0E0C
:104690009090F00E8090F10EF090EA0EE090EB0E0C
:1046A000D090EC0EC090ED0E85EA99E90E94FBF0E7
:1046B0004F925F926F927F928F929F92AF92BF9232
:1046C000CF92DF92EF92FF929F938F9322EA3FE681
:1046D0003F932F930F9426AAC8010F94375E109230
:1046E0009E060FB6F894DEBF0FBECDBF0C946D30A2
:1046F0004835510511F40C946D30E8F441355105FD
:1047000011F40C945C2F50F44C34510509F4CEC1D3
:104710004035510509F40EC60C945B304635510501
:1047200011F40C94B42F4735510511F00C945B3003
:1047300081E00C94B52F4C35510511F40C94BE2F2B
:1047400078F44A35510511F40C94B82F4B355105C6
:1047500011F00C945B308091881087600C94BB2F13
:104760004236510511F40C943E304336510511F098
:104770000C945B301092FC0E81E080934A0260E062
:1047800084EC9FE00F942DB082E00F949E360C9441
:10479000583021110C946D300F9468A320E030E064
:1047A00040E85FEB6091750270917602809177022C
:1047B000909178020F941CAB8823F9F0E091A71236
:1047C000F091A812E654FF4E80818B7F8230A9F4CD
:1047D00080E1E5E7F2E0AEECB6E001900D928A955B
:1047E000E1F780E090E0A0E8BFEB80937502909342
:1047F0007602A0937702B093780260918C1070914A
:104800008D1080918E1090918F100F9420AB6B01C2
:104810007C014090F60E5090F70E6090F80E70906C
:10482000F90E8090DA069090DB06A090DC06B0903E
:10483000DD06A5019401C301B2010F94A6B020E0EA
:1048400030E048EC52E40F9468A49B01AC01C7012E
:10485000B6010F94F2B21816E4F4A3019201C50157
:10486000B4010F94A6B020E030E048EC52E40F947D
:1048700068A49B01AC01C701B6010F94A7B00F94C7
:104880000CB260938C1070938D1080938E10909367
:104890008F108091A80E882309F43EC088E50E94FD
:1048A0000FE7811139C089E50E940FE7811134C0FB
:1048B0008AE50E940FE781112FC085E40E940FE76F
:1048C000882351F12091F60E3091F70E4091F80EA9
:1048D0005091F90E6091DA067091DB068091DC064A
:1048E0009091DD060F94A6B06B017C012DEC3CECA1
:1048F0004CEC5DEB0F941CAB87FF02C00C94815411
:104900002DEC3CEC4CEC5DE3C701B6010F94F2B228
:10491000181614F40C948A540F94179F0C946D304D
:1049200021110C946D300F9433A481E006C0211145
:104930000C946D300F9433A480E00F94739B0C940F
:104940006D3080E50E940FE7882339F00E94F2E67F
:104950000F940CB26B017C0103C0C12CD12C7601E9
:1049600083E50E940FE7882361F00E94F2E620E0D1
:1049700030E04AE754E40F9468A40F940CB26B0142
:104980007C01C114D104E104F10421F08EEB9FE617
:104990000E94F7CB0F94C6340E94AAEEC60ED71E13
:1049A000E81EF91E0E94AAEE60934610709347100D
:1049B00080934810909349100E94AAEE6C157D05D3
:1049C0008E059F0510F00C946D300F941F2E80E023
:1049D0000F944F4480E00F949E36EECF81E00F9409
:1049E0006C990C946D3088E50E940FE78DA70F94A9
:1049F00013991B012C0189E50E940FE7682E0F9483
:104A000013996DAB7EAB8FAB98AF8AE50E940FE731
:104A1000D82E0F9413994B015C0187E50E940FE794
:104A2000782E83E40E940FE77F928F93CD2CEDA820
:104A3000FEA80FA918AD262DB201A1018DA50F94D6
:104A4000DE5B0F900F903DA531110C946D3061101D
:104A50000C946D3071100C946D30D1100C946D303D
:104A600069C408E210E079E9E72E7FE6F72EB80185
:104A7000012E000C880B990B0F9422AB0F94C23EB1
:104A80009F938F937F936F931F930F93FF92EF9258
:104A90000F9426AA0F5F1F4F0FB6F894DEBF0FBE0C
:104AA000CDBF0F36110519F70C946D3020E030E0C2
:104AB00040EA50E46091C6197091C7198091C819F5
:104AC0009091C9190F94F2B287FF04C08FE59FE05F
:104AD0000C94AF2F0E9425E98A3F40F081E89CE7C3
:104AE0000E94FBF00F94907F0C946D3080916705CD
:104AF000882309F42EC480916805882309F429C409
:104B000080916905882309F424C488E39CE70E9406
:104B1000FBF00F94907F82EE92E80E94FBF040E061
:104B200060E00F94E77E882309F461C080E090E0A4
:104B3000A0EAB0E48093F20E9093F30EA093F40EEB
:104B4000B093F50E60E070E088E492E40E9483E2A6
:104B500080E090E0A8E4B2E48093F20E9093F30E2C
:104B6000A093F40EB093F50E80E090E0A4E3B3E4DC
:104B70008093EE0E9093EF0EA093F00EB093F10E93
:104B800060E070E088E492E40E9483E20F94C6340F
:104B900088EB92E80E94FBF00F94907FEFE1F4E144
:104BA00085919591A591B4918093EE0E9093EF0E1F
:104BB000A093F00EB093F10EEBE1F4E185919591A5
:104BC000A591B4918093EA0E9093EB0EA093EC0E16
:104BD000B093ED0E60E070E088E492E40E9483E21E
:104BE0000F94C63441E060E080E00F94135E20E053
:104BF00030E04CE052E46091C6197091C719809181
:104C0000C8199091C9190F94F2B218160CF088C007
:104C10008091FC0E811184C080E090E0A8ECB2E4A9
:104C20008093F20E9093F30EA093F40EB093F50ED2
:104C300060E070E088E492E40E9483E280E090E02B
:104C4000ACE0B2E48CA39DA3AEA3BFA30F94CC377A
:104C500019821A821B821C82CE0101960F94DA6996
:104C60001092B5191092B41919821A821B821C82F3
:104C70001D82CE0101960E94C2702CA13DA14EA1C1
:104C80005FA16091C6197091C7198091C819909160
:104C9000C9190F94F2B218169CF58FE79BE70E9492
:104CA000FBF00F94DA7E64E080E00F94F83782E046
:104CB0000F94663986EC99E10F94203E0F94173AD1
:104CC0008FE20F946639CE0184960F94203E0F94A4
:104CD000173A89E693E00F94173A88EE93E00F9421
:104CE0009D480E94398D40E053E567E070E0CE01B9
:104CF00001960E943C70882309F4BFCF10E001C0E8
:104D000011E066EF70E281E00F94AA3781E00F9422
:104D10000139111105C080E00F941EA30C946D3071
:104D200011E010939E0681E00F94013910935F0209
:104D30008AE39FE00E94E5E90E9406EB1A8219824D
:104D4000C090C619D090C719E090C819F090C91941
:104D500020E030E040EA50E4C701B6010F9495B17D
:104D60000F9406B225E0269FA001279F500D112425
:104D7000BA01550F880B990B0F9422AB1B012C0124
:104D800020E030E04CE052E40F941CAB87FF06C0FB
:104D9000212C312C5CE0452E62E4562EA7019601B1
:104DA000622D732D842D952D0F941CAB87FF0CC0A5
:104DB00020E030E040EA50E4622D732D842D952DE3
:104DC0000F94A7B01B012C015F924F923F922F923C
:104DD00080E89FE69F938F930F9426AA20E030E00F
:104DE00040EF51E4622D732D842D952D0F94A6B0C4
:104DF00020E030E04CE852E40F94A7B00F9406B2E4
:104E00007093B5196093B41984E08093891081E0A0
:104E100090E09093D5058093D40588EC9AE80E94A1
:104E2000FBF00E94F7CB80E090E0A0EAB0E4809332
:104E3000F20E9093F30EA093F40EB093F50E60E093
:104E400070E088E492E40E9483E280E090E0A0EACF
:104E5000B1E48093EA0E9093EB0EA093EC0EB09326
:104E6000ED0E80E090E0A0E7B2E48093EE0E909328
:104E7000EF0EA093F00EB093F10E60E070E088E4C6
:104E800092E40E9483E28AE999E9A9E1BEE3809372
:104E9000F20E9093F30EA093F40EB093F50E60E033
:104EA00070E088E492E40E9483E20F94C6340F908D
:104EB0000F900F900F900F900F90222D332D442DB7
:104EC000552D6091C6197091C7198091C81990919C
:104ED000C9190F941CAB87FF07C088EE93E00F94AD
:104EE0009D480E94398DE9CF60E086EA9FE00F94EB
:104EF0002DB080E090E0A0EAB0E48093F20E9093B1
:104F0000F30EA093F40EB093F50E60E070E088E429
:104F100092E40E9483E2EBE1F4E185919591A59101
:104F2000B4918093EA0E9093EB0EA093EC0EB093A5
:104F3000ED0EEFE1F4E185919591A591B491809307
:104F4000EE0E9093EF0EA093F00EB093F10E60E092
:104F500070E088E492E40E9483E20F94C63443E058
:104F600060E070E080E89FEB0E94F7FA882309F484
:104F7000DCC17091F20E7DA78091F30E8DAB909104
:104F8000F40E99ABA091F50EA9AFAF939F938F93B9
:104F90007F9383E79FE69F938F930F9426AA0F90AA
:104FA0000F900F900F900F900F902EEAA22E2FE0EF
:104FB000B22ECC24CA94DC2C43E2E42EF12C812CBA
:104FC000912C8601B7010F2C000C880B990B0F94C4
:104FD00022AB9B01AC0134016FEF661A760AFF9297
:104FE000EF927F926F92A7E3BFE6BF93AF93AC9629
:104FF0002FAFAC97AD963FAFAD97AE964FAFAE9794
:10500000AF965FAFAF970F9426AA0F900F900F90B7
:105010000F900F900F90AC962FADAC97AD963FAD23
:10502000AD97AE964FADAE97AF965FADAF97FFEF32
:10503000CF16DF0611F40C94CC57BE016F5F7F4F83
:10504000C5010F945473AC962FADAC97AD963FADA0
:10505000AD97AE964FADAE97AF965FADAF97622D61
:10506000732D842D952D0F941CAB18168CF425E010
:105070008216910459F0B5E0EB0EF11CEFEFCE1A59
:10508000DE0AF2E0AF0EB11C43019BCF05E010E059
:10509000180137E2231A38EF330A220C331C780147
:1050A00043E0E40EF11C25E0209FC001219F900DFC
:1050B000112400E010E0BC01635D7F4F7BAF6AAF5D
:1050C0009AE9892E99E9992E99E1A92E9EE3B92EA4
:1050D000C701029705970CF027C16AAD7BAD600F41
:1050E000711F072E000C880B990B0F9422AB2B011C
:1050F0003C01FF92EF92AAE2BFE6BF93AF930F94F9
:1051000026AAF092D505E092D40520E030E040EFE9
:1051100051E4C301B2010F94A6B020E030E040E2B8
:1051200051E40F9468A420E030E040EA50E40F948A
:1051300095B120E030E048E452E40F94A7B00F941A
:1051400006B27093B5196093B41980E090E0A0EABC
:10515000B0E48093F20E9093F30EA093F40EB0930C
:10516000F50E60E070E088E492E40E9483E220E0C3
:1051700030E040EA51E42093EA0E3093EB0E409386
:10518000EC0E5093ED0E40E050E060E772E4409387
:10519000EE0E5093EF0E6093F00E7093F10E60E000
:1051A00070E088E492E40E9483E28092F20E909292
:1051B000F30EA092F40EB092F50E60E070E088E479
:1051C00092E40E9483E20F94C6340F900F900F90E8
:1051D0000F90A30192016091C6197091C719809137
:1051E000C8199091C9190F941CAB87FF07C088EEAE
:1051F00093E00F949D480E94398DEBCF80E090E0C2
:10520000A0EAB0E48093F20E9093F30EA093F40E14
:10521000B093F50E60E070E088E492E40E9483E2CF
:10522000EBE1F4E185919591A591B4918093EA0E1B
:105230009093EB0EA093EC0EB093ED0EEFE1F4E142
:1052400085919591A591B4918093EE0E9093EF0E78
:10525000A093F00EB093F10E60E070E088E492E469
:105260000E9483E20F94C63443E060E070E080E87F
:105270009FEB0E94F7FA0B5F1F4F5FEFE51AF50AED
:10528000811103C00F941EA34FC07DA56DA999A9DC
:1052900089AD272F362F492F582F6091F20E70912C
:1052A000F30E8091F40E9091F50E0F94A6B0762E29
:1052B000672ED82EC92E2091320E3091330E409198
:1052C000340E5091350ED301F6016B2F7A2F8F2FAC
:1052D0009E2F0F9468A40F9406B27A836983CF92AD
:1052E000DF926F927F928091C9198F938091C81934
:1052F0008F938091C7198F938091C6198F93AEEFCA
:10530000BEE6BF93AF930F9426AABE016F5F7F4F97
:10531000C1010F945473F2E02F0E311C0FB6F894B4
:10532000DEBF0FBECDBFD4CE81E00F941EA310927E
:105330009E06D3C681E080939D06809167058823F1
:1053400041F080916805882321F0809169058111E1
:1053500008C081E08093B71088E59FE00F940E6A43
:10536000BCC68EE40E940FE7882349F00F94F99899
:10537000382E37E0831741F0B3E03B2E05C08BEAAF
:105380009DE00F940CB0382E82E50E940FE7882331
:1053900049F00F94F998482E4AE0481740F4AAE0E3
:1053A0004A2E05C08AEA9DE00F940CB0482E8CEA84
:1053B0009DE00F940CB089AF509189105AAF609165
:1053C000D4057091D50522967FAF6EAF229781E00C
:1053D00080938910832D90E09EA78DA7339C300188
:1053E0001124C3010A969093D5058093D40581E0DA
:1053F0000F949E360F94A6020E94559380E090E091
:10540000A0EAB0E48093F20E9093F30EA093F40E12
:10541000B093F50E65E575E585E591E40E9483E2BC
:1054200080E090E0A0E8BFE38093EA0E9093EB0E5B
:10543000A093EC0EB093ED0E8093EE0E9093EF0ED2
:10544000A093F00EB093F10E6EEE7EE08AEE9EE039
:105450000E94DCE760E070E088EC92E40E9483E266
:105460000F94C6340F94F396082F80E00F94585E83
:105470009AAB89AB512C9FEF930D25969FAF259743
:105480002DA53EA5032E000C440B550B2C962CAFDE
:105490003DAF4EAF5FAF2C978DA59EA50197AC0198
:1054A000990F660B770B60964CAF5DAF6EAF7FAF19
:1054B0006097252D30E03EAB2DAB2615370509F45E
:1054C000AFC1852D632D0F9438B5182F292E80FF7D
:1054D00005C025965FAD2597591B252E67E036122E
:1054E00011C0822D63E00F9438B591110FC0812F48
:1054F0000F9438B591110AC00F94F39681110C9452
:10550000D85704C001110C94E45701C000E0C12C2D
:10551000D12C760121100FC011110DC020E030E018
:1055200040EA50E42093F20E3093F30E4093F40ED1
:105530005093F50E24C02C966CAD7DAD8EAD9FAD15
:105540002C970F9422AB9B01AC0160E070E080E0EF
:1055500090E40F9495B19B01AC016091F20E7091B3
:10556000F30E8091F40E9091F50E0F94A7B0609316
:10557000F20E7093F30E8093F40E9093F50E40911B
:10558000F20E5091F30E6091F40E7091F50E4CAF47
:105590005DAF6EAF7FAF60E070E080EA91E40E94A3
:1055A00083E20F94C63460966CAD7DAD8EAD9FAD39
:1055B00060970F9422AB4B015C01622D70E080E09C
:1055C00090E00F9420AB20E030E04CE453E40F94E3
:1055D00068A4A50194010F9495B120E030E040E863
:1055E0005FE30F94A7B06093EA0E7093EB0E809385
:1055F000EC0E9093ED0E612F70E080E090E00F9440
:1056000020AB20E030E04CE453E40F9468A4A50103
:1056100094010F9495B120E030E040E85FE30F94EF
:10562000A7B06093EE0E7093EF0E8093F00E909300
:10563000F10E6EEE7EE08AEE9EE00E94DCE760E016
:1056400070E086E193E40E9483E20F94C634002365
:1056500059F0552049F020E030E040E85FE3C70111
:10566000B6010F94A6B004C060E070E080E291EC57
:10567000442D0E94F7FA882309F440C02091F20ECD
:105680003091F30E4091F40E5091F50E6CAD7DAD5E
:105690008EAD9FAD0F94A6B02DEC3CEC4CEC5DE3D1
:1056A0000F941CAB87FF4EC060E070E080EA90E48E
:1056B0006093F20E7093F30E8093F40E9093F50EB8
:1056C00060E070E080EA91E40E9483E20F94C634C7
:1056D000002359F0552049F020E030E040E85FE336
:1056E000C701B6010F94A6B004C060E070E080E28C
:1056F00091EC442D0E94F7FA81110BC08CED93E8D8
:105700000E94FBF09F938F930F9426AA0F900F9007
:1057100089C02091F20E3091F30E4091F40E509119
:10572000F50E60E070E080EA90E40F94A6B02DECF6
:105730003CEC4CEC5DE30F941CAB87FF03C080E0B6
:105740009FE019C00023D1F02091F20E3091F30EAA
:105750004091F40E5091F50EC701B6010F94A6B01A
:105760009F7720E030E040E85FE30F94F2B2181634
:105770002CF480ED9EE00F944EAA54C0C090C61940
:10578000D090C719E090C819F090C9198FEA9FE02E
:105790000F940CB08823A9F00E9416E9882389F0A1
:1057A000C701B6010F94C23E2091320E3091330EE4
:1057B0004091340E5091350E0F9495B19B01AC0180
:1057C00003C020E030E0A90177E0719F700111244F
:1057D000E20CF11CC701880F991F880F991FDC018B
:1057E000A154BB4E7D016091F20E7091F30E809139
:1057F000F40E9091F50E0F94A6B0F70161837283B9
:10580000838394838091D4059091D50501979093DB
:10581000D5058093D405539481E00F949E3649CEEC
:105820007EAA6DAA80E090E0A0EAB0E48093F20E38
:105830009093F30EA093F40EB093F50E60E070E039
:1058400080EA91E40E9483E20F94C6344DA95EA9D8
:105850004615570509F472C085E090E00F94C82101
:1058600001E0C12CD12C70EAE72E70E4F72E84E021
:105870009CE70E94FBF00F94DA7E8EE190E00F949B
:10588000BD7D0F941A5A1091F40D1092F40D1092E0
:10589000F30D20E030E040E85FE36091F20E70919C
:1058A000F30E8091F40E9091F50E0F94A6B06093D4
:1058B000F20E7093F30E8093F40E9093F50E60E069
:1058C00070E080EA91E40E9483E20F94C634009372
:1058D000F40D1092F30D84E00E9440B6C092F20ED7
:1058E000D092F30EE092F40EF092F50E60E070E0CC
:1058F00080EA91E40E9483E20F94C6340E94CBB503
:105900001093F40D1092F30D82E00F94B33420E065
:1059100030E040EA50E40F94F2B218160CF4A7CF2E
:105920001092891081E00F94013941E061E081E03B
:105930000F94135E81E08093B710CFC389A99AA911
:105940000F94375E0E94F69260916505709166052E
:10595000072E000C880B990B0F9422AB90582091C6
:10596000320E3091330E4091340E5091350E0F941B
:1059700095B10E94119380EC9FE00F940CB0282EFB
:10598000BE016F5F7F4F7EAB6DAB10E08DA49EA418
:1059900071E0871A9108C401092C000CAA0BBB0BFB
:1059A0008DA79EA7AFA7B8AB8CE4898382E58A83D5
:1059B00086E48B8382E48C83ADA9BEA98D91BEABB6
:1059C000ADAB0E940FE7882329F00F9413996B0168
:1059D0007C011BC0B1E02B1285C1123028F41123C9
:1059E00041F08EEB9FE00AC0123031F08CEB9FE06B
:1059F00005C08FEB9FE002C08DEB9FE00F940CB0D1
:105A0000C82E880FDD08EE08FF08C114D104E10498
:105A1000F10409F467C1D701C601F7FE07C0882762
:105A20009927DC018C199D09AE09BF0985369105BE
:105A3000A105B1059CF085EF98E30E94E5E98CEAA9
:105A40009EE00E94E5E9C701B6010E9477EA83EA79
:105A50009EE00E94E5E90E9406EB44C1C701B60141
:105A60000F9422AB2FE632E143E85AE30F9468A487
:105A70002B013C01123039F0133059F0113009F488
:105A80005DC000E00DC06FEBA62E64E1B62E00E015
:105A9000A9C05FEBA52E54E1B52E00E0E6C00F5F74
:105AA000031509F41FC1B12C37E0309F9001112478
:105AB0003DAF2CAF8B2D90E08815990584F7ECACA9
:105AC000FDACE80EF91E9701220F331F220F331F82
:105AD000F901E154FB4EFAABE9ABB401681B790B59
