:100000000C947C340C94AD340C94AD340C94AD341D
:100010000C94AD340C94BD740C94AD340D94CC7A26
:100020000C9448740C94AD340C94AD340C94AD34F1
:100030000C94AD340C94AD340C9455FB0D94993361
:100040000C94AD340D94754B0C94AD340C94AD34CC
:100050000C94AD340C94AD340C94AD340C943FB985
:100060000C94AD340D94262E0C94AD340C94AD3418
:100070000C94AD340C94AD340C94AD340C94AD347C
:100080000C94AD340C94AD340C94AD340C94AD346C
:100090000D94E22D0C94AD340C94AD340C94AD342D
:1000A0000C94AD340C94AD340D9494320C94AD3466
:1000B0000C94AD340D9476320C94AD340C94AD3474
:1000C0000C94AD340C94AD340C94AD340D94E931F2
:1000D0000C94AD340C94AD340C94AD340C94AD341C
:1000E0000C94AD345BB969B977B984B996B99DB947
:1000F000BFB9D5B97FBB81BB7FBB81BB7FBB81BB98
:1001000083BB85BB27C830C8D5C7A4C774C71FCB5E
:100110006BC88AC920CA76CA92CAC9CA2FD432D437
:1001200021D425D42BD469D436D43AD440D444D461
:1001300048D44ED452D456D469D45CD460D464D458
:100140006DD872D877D881D88BD804D995D89DD856
:10015000A5D8AFD8B9D8C3D8D2D8DCD804D9E6D876
:10016000F0D8FAD83EF3EFF23EF341F3B2F3E1F305
:100170003EF33EF300F4BB01BB016101BB01610131
:100180002702E7015F0163019F01B3016D0179015E
:100190005701950131025B012D026F01DF015D0105
:1001A000D7018301E5011D023F029101DB01150228
:1001B0003F024B02D9014102B901D5017F01BD01C6
:1001C0005901EF014F021B02070247024D022102B3
:1001D0003D02AF01084AD73B3BCE016E84BCBFFD58
:1001E000C12F3D6C74319ABD56833DDA3D00C77F07
:1001F00011BED9E4BB4C3E916BAAAABE00000080A0
:100200003F05A84CCDB2D44EB93836A9020C50B92E
:10021000918688083CA6AAAA2ABE000000803F0753
:10022000634236B79BD8A71A39685618AEBAAB5591
:100230008C1D3CB7CC5763BD6DEDFD753EF6177256
:1002400031BF000000803F08000000BE9224491228
:100250003EABAAAA2ABECDCCCC4C3E00000080BE4C
:10026000ABAAAAAA3E00000000BF000000803F0029
:1002700000000000084178D3BB4387D1133D190E1D
:100280003CC3BD4282AD2B3E68EC8276BED98FE185
:10029000A93E4C80EFFFBE01C4FF7F3F000000007D
:1002A00000000D94B9040D94810E0D94E50D0D948C
:1002B000E00C0D947B7D0D94B90C0D947F650D942D
:1002C000200B0D94630A0D943C0D0D943F610D9429
:1002D000E40E0D9402040D946A350D94F60C0D9401
:1002E0006F0C0D94D7640D9430340D94A3030D94CA
:1002F000220E0D94EB0C0D949C350D945B0F0D9418
:100300005F7D0D94F9630D949E650D942A2B0D94D9
:10031000EF620D943C090D9427130D94EB0D0D9491
:10032000CC730D94ED650D94680F0D945F0D0D94D5
:10033000FE050D94C0080D94EC600D947C680D943E
:100340000C0D0D94DA340D9449610D9423160D941F
:10035000112B0D940C040D948D600D94CE350D94DD
:10036000D67D0D9491660D94010D0D94DC140D94C1
:100370005D040D9444660D94600A0D946C7D0D949B
:100380000E620D943D620D9461670D94E3670D94C8
:10039000E4130D94816A0D94300E0D94720E0D9439
:1003A0006F370D94AD340D94AC0A0D94567D0D94B9
:1003B00091650D941E660D94FF650D9419040D94BE
:1003C00063650D9473340D9470670D94A8650D9456
:1003D000720A0D9419340D947E2E0D947D0F0D9498
:1003E000957D0D9448050D940F610D94FCA80D9416
:1003F00039340D942A340D9433140D94FD340D9436
:1004000035610D94CD670D94F5080D9438130D9456
:10041000A47D0D946F080D9448620D94CC0A0D9440
:1004200024340D9431350D9430130D94FB650D94E7
:10043000D7050D9405670D949B7D0D94D7650D949C
:1004400022610D94CA7D0D94C5640D9436110D94EE
:100450006F0A0D9423080D94BE640D948B0C0D94BB
:10046000A9660D944F0D0D94F1350D94880F0D94E0
:10047000FC600D940E050D948B040D94CD7D0D94B0
:100480004D650D9432660D941BA90D9448110D9481
:10049000AD7D0D941E080D9401660D94B67D0D94EE
:1004A000987D6E616E00696E66004E414E494E4900
:1004B0005459494E46CDCCCC3D0AD7233C17B7D131
:1004C0003877CC2B329595E6241FB14F0A000020D7
:1004D000410000C84200401C4620BCBE4CCA1B0E56
:1004E0005AAEC59D7400407A10F35A00A0724E189F
:1004F000090010A5D4E80000E87648170000E40BD6
:1005000054020000CA9A3B000000E1F5050000809B
:10051000969800000040420F000000A086010000F5
:1005200000102700000000E8030000000064000045
:100530000000000A00000000000100000000002C84
:1005400076D888DC674F0823DFC1DFAE59E1B1B749
:1005500096E5E3E453C63AE651997696E8E6C28416
:1005600026EB898C9B62ED407C6FFCEFBC9C9F402E
:10057000F2BAA56FA5F490055A2AF75C936B6CF953
:10058000676DC11BFCE0E40D47FEF520E6B500D029
:10059000ED902E0300943577050080841E0800003E
:1005A000204E0A000000C80C333333330F986E120C
:1005B000831141EF8D2114893BE65516CFFEE6DB12
:1005C00018D1844B381BF77C1D901DA4BBE424205C
:1005D0003284725E228100C9F124ECA1E53D2763DB
:1005E00064696E6F70737578585B0025642062795A
:1005F000746573207772697474656E20746F20451A
:100600004550524F4D20617420616464726573736C
:1006100020307825303478004433202D2052656115
:10062000642F577269746520454550524F4D0A003A
:10063000442D31202D20456E646C657373206C6FE2
:100640006F700A005344207072696E74696E67207F
:100650006279746520004163746976652045787419
:1006600072756465723A2000496E76616C69642027
:100670006578747275646572005A204F666673659A
:100680007400556E6B6E6F776E20636F6D6D616E6B
:10069000643A2022004D32303020496E76616C6918
:1006A0006420657874727564657220007A5F6D618C
:1006B000783A20007A5F6D696E3A2000795F6D614B
:1006C000783A2000795F6D696E3A2000785F6D613D
:1006D000783A20006F70656E005452494747455282
:1006E000454400785F6D696E3A20005265706F7204
:1006F00074696E6720656E6473746F7020737461C3
:100700007475730053494C454E54004E4F524D4141
:100710004C002553204D4F44453A20506572636587
:100720006E7420646F6E653A2025643B2070726998
:100730006E742074696D652072656D61696E696E95
:100740006720696E206D696E733A2025643B2043F3
:1007500068616E676520696E206D696E733A202549
:10076000640A00456E642066696C65206C69737468
:1007700000426567696E2066696C65206C697374F8
:10078000000A50494E44412074656D706572617471
:100790007572653A20252E3166205A207368696685
:1007A0007420286D6D293A20252E3366000A537473
:1007B00065703A2025642F360A000A537465703A32
:1007C0002025642F362028736B6970706564290AB0
:1007D00050494E44412074656D7065726174757244
:1007E000653A202564205A20736869667420286D54
:1007F0006D293A300A000A5A45524F3A20252E33C5
:10080000660A0073746172742074656D706572613C
:10081000747572653A20252E31660A002564202001
:10082000252E326600255320583A20252E35662085
:10083000593A20252E3566205A3A20252E35660A4B
:1008400000536C6565702E2E2E0045303A256420CD
:1008500052504D0A50524E303A25642052504D0AA3
:1008600000256400416476616E6365204B3D004B5A
:10087000206F7574206F6620616C6C6F77656420E3
:1008800072616E67652100200A200A20004D323215
:10089000302053256900255346696C616D656E747F
:1008A0002073657474696E67733A2044697361627A
:1008B0006C65640A00255346696C616D656E742031
:1008C00073657474696E67733A0A25532020204D4E
:1008D0003230302044252E32660A0025535265748A
:1008E000726163743A20533D4C656E6774682028CA
:1008F0006D6D2920463A537065656420286D6D2F13
:100900006D29205A3A205A4C69667420286D6D2949
:100910000A25532020204D3230372053252E3266B1
:100920002046252E3266205A252E32660A2553523D
:1009300065636F7665723A20533D45787472612025
:100940006C656E67746820286D6D2920463A537077
:1009500065656420286D6D2F6D290A2553202020A0
:100960004D3230382053252E32662046252E3266F1
:100970000A25534175746F2D526574726163743A20
:1009800020533D3020746F2064697361626C652C64
:10099000203120746F20696E7465727072657420E6
:1009A000657874727564652D6F6E6C79206D6F76E5
:1009B0006573206173207265747261637473206F54
:1009C00072207265636F7665726965730A255320BC
:1009D00020204D323039205325640A0025535049D8
:1009E0004420686561746265642073657474696E1F
:1009F00067733A0A25532020204D33303420502588
:100A00002E32662049252E32662044252E32660A73
:100A10000025535049442073657474696E67733AB6
:100A20000A25532020204D3330312050252E3266A8
:100A30002049252E32662044252E32660A00255391
:100A400053746570732070657220756E69743A0A0C
:100A5000255320204D39322058252E326620592525
:100A60002E3266205A252E32662045252E32660A01
:100A700025535553746570207265736F6C75746976
:100A80006F6E3A200A2553204D33353020582564A7
:100A900020592564205A2564204525640A25534D94
:100AA0006178696D756D20666565647261746573E2
:100AB000202D206E6F726D616C20286D6D2F732953
:100AC0003A0A255320204D3230332058252E3266E5
:100AD0002059252E3266205A252E32662045252E95
:100AE00032660A25534D6178696D756D20666565BE
:100AF000647261746573202D20737465616C746811
:100B000020286D6D2F73293A0A255320204D32304D
:100B1000332058252E32662059252E3266205A253C
:100B20002E32662045252E32660A25534D6178699E
:100B30006D756D20616363656C65726174696F6E5C
:100B4000202D206E6F726D616C20286D6D2F7332B9
:100B5000293A0A255320204D3230312058256C7512
:100B60002059256C75205A256C752045256C750A11
:100B700025534D6178696D756D20616363656C65A2
:100B8000726174696F6E202D20737465616C746876
:100B900020286D6D2F7332293A0A255320204D32BB
:100BA00030312058256C752059256C75205A256CDC
:100BB000752045256C750A2553416363656C657224
:100BC0006174696F6E3A20503D7072696E742C20AA
:100BD000523D726574726163742C20543D7472616D
:100BE00076656C0A255320204D3230342050252E56
:100BF00032662052252E32662054252E32660A2572
:100C000053416476616E63656420766172696162E6
:100C10006C65733A20533D4D696E2066656564725C
:100C200061746520286D6D2F73292C20543D4D690A
:100C30006E2074726176656C20666565647261749D
:100C40006520286D6D2F73292C20423D6D696E69DA
:100C50006D756D207365676D656E742074696D6563
:100C600020286D73292C20583D6D6178696D756D54
:100C7000205859206A65726B20286D6D2F73292CBE
:100C800020205A3D6D6178696D756D205A206A6526
:100C9000726B20286D6D2F73292C2020453D6D61CE
:100CA00078696D756D2045206A65726B20286D6DC1
:100CB0002F73290A255320204D3230352053252EFD
:100CC00032662054252E32662042252E3266205868
:100CD000252E32662059252E3266205A252E326660
:100CE0002045252E32660A2553486F6D65206F66B4
:100CF0006673657420286D6D293A0A255320204DAE
:100D00003230362058252E32662059252E32662064
:100D10005A252E32660A004625642025640A004DB5
:100D20004D55203C3D2027462564202564270A0098
:100D3000504944204175746F74756E652066696E04
:100D40006973686564212050757420746865206C2F
:100D5000617374204B702C204B6920616E64204BB2
:100D60006420636F6E7374616E74732066726F6D4E
:100D70002061626F766520696E746F20436F6E66C6
:100D8000696775726174696F6E2E680050494420FE
:100D90004175746F74756E65206661696C65642158
:100DA0002074696D656F75740020403A00543A00F4
:100DB000423A00504944204175746F74756E652045
:100DC0006661696C6564212054656D70657261743B
:100DD00075726520746F6F206869676800204B64C6
:100DE0003A2000204B693A2000204B703A20002026
:100DF000436C61737369632050494420002054752B
:100E00003A2000204B753A2000206D61783A20008E
:100E1000206D696E3A200020643A200020626961EA
:100E2000733A20004361703A25533A25630A004122
:100E300055544F5245504F52545F504F53495449A7
:100E40004F4E004155544F5245504F52545F46410A
:100E50004E53004155544F5245504F52545F5445E4
:100E60004D5000005A30005A3100593000593100BD
:100E7000583000583100456E642073746F707320D1
:100E8000646961670044656C6574696F6E206661B2
:100E9000696C65642C2046696C653A200046696C73
:100EA000652064656C657465643A004E6F74205308
:100EB00044207072696E74696E67005072696E7456
:100EC000207361766564005344207072696E7420EB
:100ED000706175736564004F4B004241440052419C
:100EE0004D426F2046414E200043524153485F43DC
:100EF000414E43454C0043524153485F5245434F96
:100F00005645520043524153485F5245434F564560
:100F1000520022283229004475706C69636174653F
:100F200020542D636F64652069676E6F7265642E4F
:100F300000496E76616C6964205420636F64652E8D
:100F400000556E6B6E6F776E204D20636F64653A4F
:100F5000202573200A006E6F2076616C696420631F
:100F60006F6D6D616E64002C20002C20002C200021
:100F70006E2F61002C20002C20002C20006E2F6191
:100F800000503A005761697420666F722050494ED4
:100F90004441207461726765742074656D70657278
:100FA00061747572653A004155544F004C414E478B
:100FB0002053454C20464F52434544002569252582
:100FC0000A00256925250A00222831290030303001
:100FD00030303030302D303030302D303030302D1A
:100FE000303030302D303030303030303030303004
:100FF000300020555549443A00310020455854529C
:10100000554445525F434F554E543A0050727573E4
:1010100061206933204D4B335300204D41434849F3
:101020004E455F545950453A00312E3000206261E0
:10103000736564206F6E204D61726C696E20464945
:10104000524D574152455F55524C3A687474707313
:101050003A2F2F6769746875622E636F6D2F7072F7
:1010600075736133642F50727573612D4669726DAB
:10107000776172652050524F544F434F4C5F564535
:101080005253494F4E3A004649524D574152455FDF
:101090004E414D453A50727573612D4669726D77B8
:1010A00061726520004D31313320530020423A00F7
:1010B00020453A00543A006F6B20006E2F61003FCC
:1010C000546F736869626120466C6173684169722C
:1010D000204765744950206661696C65640A002583
:1010E00069206D696E2C2025692073656300496E47
:1010F00076616C6964204D20636F64653A202573C6
:10110000200A00556E6B6E6F776E204720636F6408
:10111000653A202573200A004D6573682062656476
:10112000206C6576656C696E67206E6F74206163F4
:10113000746976652E002020000A4D656173757212
:10114000656420706F696E74733A000A5A20736583
:1011500061726368206865696768743A20004E753B
:101160006D20582C593A2000206D6963726F6E73A0
:101170000045786365737369766520626564206CE9
:101180006576656C696E6720636F727265637469FA
:101190006F6E3A2000426564206C6576656C696EFE
:1011A00067206661696C65642E2053656E736F728B
:1011B0002074726967676572656420746F6F206858
:1011C0006967682E00426564206C6576656C696E9F
:1011D00067206661696C65642E2053656E736F725B
:1011E00020646973636F6E6E6563746564206F72EB
:1011F000206361626C652062726F6B656E2E0050B9
:10120000494E44412070726F62652063616C69626F
:10121000726174696F6E2073746172740047323842
:10122000205730004E6F2050494E4441207468656D
:10123000726D6973746F7200736574006E6F7A7A81
:101240006C65004D424C0046520042656174004C92
:101250007A004C616E6700526576004669720053F1
:101260004E20696E76616C696400534E004D3238D1
:10127000005245534554004D4D55524553004D3293
:10128000340075766C6F007468780046414E0046F5
:10129000414E50494E5453540050524E0050696EC6
:1012A00067005052555341005345545F43484F50D7
:1012B0005F005345545F535445505F005345545F9E
:1012C000574156455F00544D435F004352415348D8
:1012D0005F43414E43454C0043524153485F5245A2
:1012E000434F5645520043524153485F444554458D
:1012F000435445440043524153485F004D31200060
:101300004D30004D31313700472D636F64652073D8
:101310006C6963656420666F72206120646966662B
:101320006572656E74206C6576656C2E20436F6EF9
:1013300074696E75653F00472D636F646520736C3B
:101340006963656420666F72206120646966666502
:1013500072656E74206C6576656C2E20506C6561CC
:1013600073652072652D736C6963652074686520F0
:101370006D6F64656C20616761696E2E20507269C3
:101380006E742063616E63656C6C65642E00472D1E
:10139000636F646520736C6963656420666F722097
:1013A00061206E65776572206669726D776172651E
:1013B0002E20506C656173652075706461746520C2
:1013C000746865206669726D776172652E2050724F
:1013D000696E742063616E63656C6C65642E004792
:1013E0002D636F646520736C6963656420666F723A
:1013F0002061206E65776572206669726D77617213
:10140000652E20436F6E74696E75653F00472D63CE
:101410006F646520736C6963656420666F72206118
:1014200020646966666572656E74207072696E7498
:10143000657220747970652E20436F6E74696E75C5
:10144000653F00472D636F646520736C6963656455
:1014500020666F72206120646966666572656E74CD
:10146000207072696E74657220747970652E2050D8
:101470006C656173652072652D736C69636520749A
:101480006865206D6F64656C20616761696E2E20F0
:101490005072696E742063616E63656C6C65642E56
:1014A00000507265737320746865206B6E6F6220E4
:1014B000746F2070726568656174206E6F7A7A6CE3
:1014C0006520616E6420636F6E74696E75652E00B1
:1014D000506C656173652070726573732074686504
:1014E000206B6E6F6220746F20756E6C6F6164206C
:1014F00066696C616D656E740052656D6F7665200E
:101500006F6C642066696C616D656E7420616E64D9
:1015100020707265737320746865206B6E6F622033
:10152000746F207374617274206C6F6164696E678C
:10153000206E65772066696C616D656E742E006142
:101540006E6420707265737320746865206B6E6FB3
:101550006200496E736572742066696C616D656EB8
:101560007400436F6C6F72206E6F7420636F7272C1
:101570006563740046696C616D656E74206E6F748E
:10158000206C6F61646564004368616E6765642008
:10159000636F72726563746C793F004C6F6164694C
:1015A0006E6720636F6C6F72004368616E676520C1
:1015B000737563636573732100506C656173652097
:1015C0006F70656E2069646C657220616E64207254
:1015D000656D6F76652066696C616D656E74206DF2
:1015E000616E75616C6C792E005761732066696C51
:1015F000616D656E7420756E6C6F616420737563C8
:101600006365737366756C3F00506C65617365202C
:10161000757067726164652E004E65772066697229
:101620006D776172652076657273696F6E20617681
:1016300061696C61626C653A0057616974696E67D3
:1016400020666F722050494E44412070726F62656F
:1016500020636F6F6C696E6700437261736820640A
:10166000657465637465642E20526573756D6520BD
:101670007072696E743F00437261736820646574B0
:1016800065637465642E0043686F6F7365206578C9
:101690007472756465723A0043686F6F7365206693
:1016A000696C616D656E743A004E6F206D6F766582
:1016B0002E00536F6D652070726F626C656D2065D2
:1016C0006E636F756E74657265642C205A2D6C653F
:1016D00076656C696E6720656E666F7263656420FF
:1016E0002E2E2E00537461626C6520616D626965F7
:1016F0006E742074656D70657261747572652032E8
:10170000312D323643206973206E6565646564202F
:1017100061207269676964207374616E6420697303
:101720002072657175697265642E00506C65617315
:10173000652072756E2058595A2063616C69627217
:101740006174696F6E2066697273742E00576169E7
:101750007420666F7220757365722E2E2E003B53B7
:10176000006164635F696E6974000A204F72696783
:10177000696E616C2050727573612069330A202094
:1017800020507275736120526573656172636800E1
:10179000200A200A200A20005365727669636520BA
:1017A0007072657000416C6C204461746100536814
:1017B000697070696E67207072657000537461742F
:1017C000697374696373004C616E67756167650066
:1017D00045524153494E4720616C6C2064617461ED
:1017E00000466163746F727920524553455400443A
:1017F000495341424C454400454E41424C4544000A
:10180000202873656E736F7220626F61726420723C
:1018100065766973696F6E3A2553290A00465365E8
:101820006E736F7220255300494E5434004D4B3374
:10183000534D4D553253004E4F4D4B3353002E01F7
:101840004E4F4354554100414C5446414E004D616A
:1018500072203231203230323100436F6D70696C4A
:1018600065643A2000286E6F6E652C2064656661A1
:10187000756C7420636F6E66696729004D61722014
:10188000323120323032312030383A30303A33374A
:101890000020332E392E332D3335353600737461E5
:1018A000727400534E2075706461746520666169BE
:1018B0006C656400534E207570646174656400410A
:1018C0006E206572726F72207768696C652077721E
:1018D0006974696E6720746F2074686520534420B2
:1018E000436172642E002055706C6F616420696ED4
:1018F0002070726F677265737300205A3A00205926
:101900003A0020583A0043524153485F44455445F9
:101910004354454458590043524153485F44455449
:101920004543544544590043524153485F4445544C
:10193000454354454458004D32390045787465722A
:101940006E616C2053504920666C6173680A57328F
:1019500035583230434C206973206E6F74207265A5
:10196000732D0A706F6E64696E672E204C616E670E
:10197000756167650A73776974636820756E61764F
:1019800061696C61626C652E0043726173684465C5
:10199000746563742044495341424C45440043728A
:1019A00061736844657465637420454E41424C45DB
:1019B00044210045787472756465722066616E20FA
:1019C000747970653A2000573235583230434C20D4
:1019D0006E6F7420726573706F6E64696E672E002F
:1019E0002020506C616E6E6572427566666572424B
:1019F000797465733A20002046726565204D656DE7
:101A00006F72793A2000207C20417574686F723AB9
:101A10002000204C61737420557064617465643AD1
:101A2000200020536F66747761726520526573657C
:101A30007400205761746368646F67205265736532
:101A400074002042726F776E206F75742052657338
:101A50006574002045787465726E616C2052657300
:101A6000657400506F7765725570006572726F72A1
:101A70002077726974696E6720746F2066696C657F
:101A800000656E6473746F7073206869743A200027
:101A9000446F6E6520736176696E672066696C6558
:101AA0002E006F6B004D4B3353206669726D77616A
:101AB0007265206465746563746564206F6E204D83
:101AC0004B33207072696E74657200507275736169
:101AD000206933204D4B3353204F4B2E00426C6115
:101AE000636B6F7574206F636375727265642E200B
:101AF0005265636F766572207072696E743F005331
:101B0000656C66746573742077696C6C20626520FF
:101B100072756E20746F2063616C696272617465A6
:101B20002061636375726174652073656E736F7293
:101B30006C657373207265686F6D696E672E0054F3
:101B400068657265206973207374696C6C2061200C
:101B50006E65656420746F206D616B65205A20632B
:101B6000616C6962726174696F6E2E20506C656180
:101B7000736520666F6C6C6F7720746865206D618B
:101B80006E75616C2C2063686170746572204669A3
:101B90007273742073746570732C20736563746939
:101BA0006F6E2043616C6962726174696F6E20664A
:101BB0006C6F772E005072696E7465722068617365
:101BC000206E6F74206265656E2063616C6962725D
:101BD00061746564207965742E20506C656173654D
:101BE00020666F6C6C6F7720746865206D616E7510
:101BF000616C2C2063686170746572204669727331
:101C0000742073746570732C2073656374696F6ED0
:101C10002043616C6962726174696F6E20666C6FDB
:101C2000772E004F6C642073657474696E6773203F
:101C3000666F756E642E2044656661756C74205005
:101C400049442C20457374657073206574632E209D
:101C500077696C6C206265207365742E0057617221
:101C60006E696E673A20626F7468207072696E7474
:101C70006572207479706520616E64206D6F746880
:101C80006572626F61726420747970652063686147
:101C90006E6765642E005761726E696E673A2070D8
:101CA00072696E7465722074797065206368616E04
:101CB0006765642E005761726E696E673A206D6FBA
:101CC00074686572626F61726420747970652063F4
:101CD00068616E6765642E004B494C4C45442E206C
:101CE000005072696E7465722068616C7465642E50
:101CF000206B696C6C28292063616C6C6564210021
:101D00004B494C4C3A2025640A004D32323120496F
:101D10006E76616C69642065787472756465722092
:101D2000004D32313820496E76616C6964206578E7
:101D300074727564657220004D31303920496E76B9
:101D4000616C696420657874727564657220004DF9
:101D500031303520496E76616C6964206578747223
:101D60007564657220004D31303420496E76616CA7
:101D700069642065787472756465722000504F57ED
:101D800045522050414E4943204445544543544513
:101D9000440055564C4F202D20656E642025640A62
:101DA0000055564C4F5F54494E59202D20656E64A6
:101DB0002025640A00776F726C6420636F6F726411
:101DC000696E617465733A2028252E33662C2025B0
:101DD0002E33662C20252E3366290A004375727235
:101DE000656E7420706F73205A5F415849533A25CD
:101DF0002E33660A43757272656E7420706F73209D
:101E0000455F415849533A252E33660A00416674AE
:101E100065722077616974696E6720666F722074DD
:101E2000656D703A0A43757272656E7420706F73D7
:101E300020585F415849533A252E33660A4375723C
:101E400072656E7420706F7320595F415849533A20
:101E5000252E33660A0020573A0020453A00543AAE
:101E6000005A206C6976652061646A757374206F0E
:101E70007574206F662072616E67652E20536574DD
:101E800074696E6720746F20302E20436C69636B19
:101E900020746F20636F6E74696E75652E005A2012
:101EA0006C6976652061646A757374206F7574203F
:101EB0006F662072616E67652E2053657474696E5B
:101EC0006720746F20300020423A0020453A0054C9
:101ED0003A00494E5434007265636F7665725F6DE7
:101EE000616368696E655F73746174655F61667470
:101EF00065725F706F7765725F70616E69632C20C9
:101F0000696E697469616C200050525553412075A7
:101F1000766C6F004734205330004D323620532505
:101F20006C75004D3130362053004D323230205325
:101F3000256400473120462564004D38320047397A
:101F4000322045004731204525302E336620463269
:101F5000373030004D32303420502566205225660F
:101F600020542566004731205A25660050525553AB
:101F700041204D424C2056310047312058256620E3
:101F800059256620463330303000506F73697469CC
:101F90006F6E20726561642066726F6D206565707A
:101FA000726F6D3A004D3233202573002E67636FD8
:101FB000002C20666565646D756C7469706C793A87
:101FC0000046656564726174653A004731204525B5
:101FD0002D302E33662046323730300047312045D1
:101FE000352046313230004D3833004D3130392004
:101FF000532564004D31393020532564004D313074
:102000003420532564004732382058205900473186
:10201000205A252E33662046383030004731205A6A
:10202000252D302E33662046252D302E3366004771
:10203000312045252D302E33662046323730300092
:102040004D3833005265636F766572696E67207034
:1020500072696E742020202000506C6561736520C9
:10206000776169740058595A2063616C69627261C2
:1020700074696F6E20616C6C2072696768742E20C1
:10208000536B65772077696C6C20626520636F7293
:10209000726563746564206175746F6D61746963E2
:1020A000616C6C792E0058595A2063616C696272B8
:1020B0006174696F6E20616C6C2072696768742E40
:1020C00020582F5920617865732061726520736CE8
:1020D000696768746C7920736B657765642E204737
:1020E0006F6F64206A6F62210058595A2063616CD7
:1020F0006962726174696F6E206F6B2E20582F5960
:102100002061786573206172652070657270656EFC
:10211000646963756C61722E20436F6E67726174BF
:10212000756C6174696F6E73210058595A20636130
:102130006C6962726174696F6E206661696C656456
:102140002E2052696768742066726F6E7420636116
:102150006C6962726174696F6E20706F696E742051
:102160006E6F7420726561636861626C652E0058E1
:10217000595A2063616C6962726174696F6E20667E
:1021800061696C65642E2046726F6E742063616CA9
:102190006962726174696F6E20706F696E7473200A
:1021A0006E6F7420726561636861626C652E0058A1
:1021B000595A2063616C6962726174696F6E20663E
:1021C00061696C65642E20506C6561736520636F76
:1021D0006E73756C7420746865206D616E75616CCA
:1021E0002E0058595A2063616C6962726174696F7C
:1021F0006E20636F6D70726F6D697365642E20520F
:10220000696768742066726F6E742063616C6962BE
:10221000726174696F6E20706F696E74206E6F7476
:1022200020726561636861626C652E0058595A209E
:1022300063616C6962726174696F6E20636F6D7047
:10224000726F6D697365642E2046726F6E742063C1
:10225000616C6962726174696F6E20706F696E740F
:1022600073206E6F7420726561636861626C652EA5
:102270000058595A2063616C6962726174696F6EAB
:10228000206661696C65642E204265642063616C20
:102290006962726174696F6E20706F696E74207705
:1022A0006173206E6F7420666F756E642E00506CC3
:1022B0006561736520706C61636520737465656C1E
:1022C000207368656574206F6E206865617462654F
:1022D000642E0044697374616E636520626574776F
:1022E00065656E20746970206F6620746865206E65
:1022F0006F7A7A6C6520616E64207468652062650F
:1023000064207375726661636520686173206E6F07
:1023100074206265656E20736574207965742E2063
:10232000506C6561736520666F6C6C6F77207468A4
:1023300065206D616E75616C2C20636861707465D9
:10234000722046697273742073746570732C2073E5
:10235000656374696F6E204669727374206C61796D
:1023600065722063616C6962726174696F6E2E00C0
:10237000506C6163652061207368656574206F66C9
:1023800020706170657220756E6465722074686576
:10239000206E6F7A7A6C6520647572696E6720743E
:1023A00068652063616C6962726174696F6E206F29
:1023B00066206669727374203420706F696E74735E
:1023C0002E20496620746865206E6F7A7A6C6520CD
:1023D00063617463686573207468652070617065FB
:1023E000722C20706F776572206F66662074686546
:1023F000207072696E74657220696D6D65646961C3
:1024000074656C792E00506C656173652072656D22
:102410006F766520737465656C20736865657420DC
:1024200066726F6D20686561746265642E00497321
:1024300020737465656C207368656574206F6E2009
:10244000686561746265643F00206F6620340053E4
:102450006561726368696E67206265642063616CA0
:102460006962726174696F6E20706F696E740020AA
:102470006F662039004D6561737572696E672072F1
:1024800065666572656E6365206865696768742056
:102490006F662063616C6962726174696F6E20702F
:1024A0006F696E7400506C6561736520636C656163
:1024B0006E20746865206E6F7A7A6C6520666F7224
:1024C0002063616C6962726174696F6E2E20436C67
:1024D00069636B207768656E20646F6E652E0041BE
:1024E00075746F20686F6D65004D656173757265F9
:1024F0006420736B6577733A2025662025660A0091
:1025000046697474696E67206661696C6564203D14
:102510003E2063616C6962726174696F6E206661EE
:10252000696C65642E0A0043616C6962726174694A
:102530006F6E20737563636573732E0A00416C6C54
:1025400020342063616C6962726174696F6E2070FF
:102550006F696E747320666F756E642E0A007879E9
:102560007A63616C5F6D656173737572655F656ECB
:102570007465720A0078797A63616C5F737069724E
:10258000616C382063783D25642063793D256420A3
:102590007A303D256420647A3D2564207261646947
:1025A00075733D25642061643D25640A0078797A5D
:1025B00063616C5F7365617263685A206E6F20732C
:1025C00069676E616C0A20783D256C6420793D2531
:1025D0006C64207A3D256C640A00204F4E2D5349CF
:1025E000474E414C20617420783D256420793D257B
:1025F00064207A3D25642061643D25640A00787971
:102600007A63616C5F7365617263685A20783D25F7
:102610006C6420793D256C64207A3D256C640A0049
:1026200025640A005363616E20636F756E74646F76
:10263000776E3A20000A002530327800205B25664C
:102640002025665D206D6D207061747465726E204A
:1026500063656E7465720A00205B25662025665DE1
:102660005B25665D206D6D20646976657267656EB9
:1026700063650A000000F000F801FC03FE07FE0796
:10268000FE07FE07FC03F801F00000000000000058
:10269000F000F801FC03FC03FC03FC03F801F0006C
:1026A0000000000073697A656F6628626C6F636B67
:1026B0005F627566666572293D25640A0078797ADD
:1026C00063616C5F6D656173737572655F6C656185
:1026D00076650A0078797A63616C5F66696E645F1B
:1026E0006265645F696E64756374696F6E5F73655C
:1026F0006E736F725F706F696E745F787920783D6A
:10270000256C6420793D256C64207A3D256C640A33
:1027100000203C20005741524E494E473A20467215
:102720006F6E7420706F696E74206E6F74207265A6
:1027300061636861626C652E205920636F6F7264FB
:10274000696E6174653A0000000040410000C040BD
:1027500000005C430000C04000005C4300004643B2
:102760000000404100004643497465726174696F1E
:102770006E3A200043616C6962726174696F6E2009
:102780006661696C65642120436865636B207468C9
:1027900065206178657320616E642072756E2061BA
:1027A0006761696E2E006572726F723A20756E6B8A
:1027B0006E6F776E206D6F7665006E6F206D6F7631
:1027C0006500542D636F646500756E6C6F61640005
:1027D0006C6F6164006D6D755F6765745F726573C2
:1027E000706F6E7365202D20626567696E206D6F56
:1027F00076653A20006D6D755F6765745F7265730D
:10280000706F6E736528292072657475726E696EBB
:10281000673A2025640A00556E6C6F6164696E67C3
:102820002066696E6973686564203200556E6C6F4E
:102830006164203200556E6C6F6164696E6720665A
:10284000696E6973686564203100556E6C6F6164F0
:102850002031004D4D552073746172747320726580
:1028600073706F6E64696E67004D4D55206E6F74A6
:1028700020726573706F6E64696E670046696C6183
:102880006D656E74206F7574206F662072616E675F
:1028900065202564200A000000803F5555854100D1
:1028A00000803F0000C8410000004055550542002F
:1028B00000C03F00004842000020405555854200BE
:1028C0000070C1ABAAA642000060C10000A0410098
:1028D00000C0C00000204100002041ABAA3A4100E6
:1028E0000020C15555D540000048C2555505424D00
:1028F000373031204534004D373031204533004DDD
:10290000373031204532004D373031204531004DD0
:102910003730312045300046696C616D656E74203A
:102920006E72206F7574206F662072616E6765210C
:1029300000206661696C65642E00207375636365B1
:10294000656465642E004D4D552063616E5F6C6F4C
:1029500061643A004164646974696F6E616C206CF3
:102960006F616420617474656D7074206E722E20C6
:1029700025640A00773235783230636C5F63666DA8
:102980000A00773235783230636C5F656E74657239
:102990000A0073746172740A004D4D55204F4B2E1E
:1029A00020526573756D696E672E2E2E004D4D5544
:1029B000204F4B2E20526573756D696E6720706FC6
:1029C000736974696F6E2E2E2E004D4D55204F4B3E
:1029D0002E20526573756D696E672074656D706524
:1029E0007261747572652E2E2E00466978207468A7
:1029F0006520697373756520616E64207468656E07
:102A000020707265737320627574746F6E206F6EC0
:102A1000204D4D5520756E69742E0050726573738C
:102A200020746865206B6E6F6220746F207265730E
:102A3000756D65206E6F7A7A6C652074656D706552
:102A40007261747572652E004D4D55206E6565641A
:102A500073207573657220617474656E74696F6E2E
:102A60002E0043757474696E672066696C616D65CC
:102A70006E7400506C656173652072656D6F76656C
:102A80002066696C616D656E7420616E6420746887
:102A9000656E20707265737320746865206B6E6F4D
:102AA000622E00456A656374696E672066696C61B1
:102AB0006D656E74004D4D55206C6F6164206661CC
:102AC000696C656420202020200025632533642F55
:102AD0002564256300436F6F6C646F776E005072DE
:102AE000656865617420746865206E6F7A7A6C65BC
:102AF00021004552524F523A0046696C616D656E35
:102B00007420657874727564696E67202620776911
:102B1000746820636F727265637420636F6C6F7288
:102B20003F004175746F6C6F6164696E6720666900
:102B30006C616D656E74206973206163746976657C
:102B40002C206A75737420707265737320746865C5
:102B5000206B6E6F6220616E6420696E73657274A3
:102B60002066696C616D656E742E2E2E0050726940
:102B70006E742074696D650046696C616D656E7474
:102B8000207573656400546F74616C207072696E97
:102B9000742074696D6500546F74616C2066696C93
:102BA000616D656E74005269676874004C65667487
:102BB00000592064697374616E63652066726F6D7D
:102BC000206D696E0053657665726520736B65775D
:102BD0003A00536C6967687420736B65773A004DEF
:102BE0006561737572656420736B6577005B303B5C
:102BF000305D20706F696E74206F66667365740057
:102C000041646A757374696E67205A3A005265614F
:102C1000722073696465205B756D5D0046726F6E2E
:102C20007420736964655B756D5D005269676874D3
:102C300020736964655B756D5D004C656674207317
:102C4000696465205B756D5D005365742074656D06
:102C500070657261747572653A0054656D70657265
:102C600061747572652063616C6962726174696F09
:102C70006E206661696C65640054656D7065726193
:102C8000747572652063616C6962726174696F6EDC
:102C90002069732066696E697368656420616E647B
:102CA000206163746976652E2054656D702E2063F3
:102CB000616C6962726174696F6E2063616E20621B
:102CC000652064697361626C656420696E206D655E
:102CD0006E752053657474696E67732D3E54656D0F
:102CE000702E2063616C2E00464C4558202D20200C
:102CF0003234302F35300050502020202D2020320B
:102D000035342F3130300048495053202D202032A7
:102D100032302F3130300041425320202D202032DC
:102D200035352F3130300050564220202D202032B2
:102D300031352F37350050432020202D20203237C9
:102D4000352F3131300041534120202D20203236A3
:102D5000302F3130350050455420202D2020323383
:102D6000302F383500504C4120202D202032313575
:102D70002F3630006E6F7A7A6C65202D2020323528
:102D8000302F30006661726D2020202D20203235DA
:102D9000302F383000252D31322E313253252B384B
:102DA0002E31660045787472756465723A006D6DF7
:102DB0000059005800583A00593A005A3A00256321
:102DC000252D31332E313353252B352E33660054C8
:102DD000656D70657261747572652063616C69629E
:102DE000726174696F6E206661696C65642E204340
:102DF0006F6E74696E75652077697468207072658E
:102E00007373696E6720746865206B6E6F622E0045
:102E100054656D70657261747572652063616C696B
:102E200062726174696F6E20646F6E652E20436FED
:102E30006E74696E75652077697468207072657349
:102E400073696E6720746865206B6E6F622E002553
:102E5000533A0A2531382E32666D200A25533A0A34
:102E60002531306C6468202530326868646D202517
:102E70003032686864730025533A0A2531382E329F
:102E8000666D200A25533A0A2531306C646420258A
:102E9000303268686468202530326868646D0025C7
:102EA000362E32666D6D0025533A0A25530A255396
:102EB0003A0A25533A0025332E3266010025533A4B
:102EC0000A25530A252D31352E31355325332E321F
:102ED00066010A252D31352E31355325332E3266C4
:102EE0000100437573746F6D0054657874757200DA
:102EF000536D6F6F74680047312059252D2E32664F
:102F00002045252D2E336600473120582564205951
:102F1000252D2E32662045252D2E336600667365DD
:102F20006E736F725F636865636B706F696E745FF9
:102F30007072696E74006673656E736F722076309E
:102F40002E3420696E206661756C742072616E6724
:102F50006520342E362D3556202D20756E636F6E0C
:102F60006E6563746564006673656E736F72206965
:102F70006E20666F7262696464656E2072616E674E
:102F80006520312E352D3356202D20636865636B07
:102F90002073656E736F7200312E3000312E350054
:102FA000554E4B4E4F574E004C413130433A204C1A
:102FB000696E65617220416476616E6365206D6F34
:102FC00064653A20004C413130433A2041646A75CF
:102FD0007374656420452D4A65726B3A2000000EBB
:102FE0001315110E00000004120912040000001C49
:102FF0001F11111F00000006191803130C00040E06
:103000001F041C000000040A0A0A0A11110E001F06
:103010001511151F0000000103161C080000000018
:10302000110A04110A040C12120C0000000025639E
:10303000252D31382E3138532563005B25735D25EE
:1030400063005B25535D2563002563252D31382EF4
:1030500031385300252E31305320002563252D3182
:10306000382E3138732563002563252D2E313653D4
:103070002000756E6B6E6F776E20737461746500DF
:1030800020302E34206F72206E65776572002030FC
:103090002E33206F72206F6C646572004D203834BF
:1030A000004D3834004D3234004D3233202573004A
:1030B000052E2E00257500593A202575202D3E201D
:1030C0002E2E2E00257500583A202575202D3E20E5
:1030D0002E2E2E004D656173757265642066696CD5
:1030E000616D656E742073656E736F72206C6F779F
:1030F000206C6576656C3A2025342E3266560A00BF
:103100004D656173757265642066696C616D656E8D
:10311000742073656E736F722068696768206C65D0
:1031200076656C3A2025342E3266560A004578744E
:10313000722066616E2073706565643A2025640AAA
:10314000005072696E742066616E207370656564EC
:103150003A2025640A005465737420323A00457899
:1031600074722066616E2073706565643A20256410
:103170000A005072696E742066616E207370656516
:10318000643A2025640A005465737420313A004D76
:10319000383400436865636B696E672066696C65E7
:1031A0000046696C6520696E636F6D706C6574654F
:1031B0002E20436F6E74696E756520616E7977613C
:1031C000793F000452656672657368004D61696EEF
:1031D00000496E73657274207468652066696C615D
:1031E0006D656E742028646F206E6F74206C6F6143
:1031F000642069742920696E746F20746865206585
:103200007874727564657220616E64207468656E8E
:1032100020707265737320746865206B6E6F622E08
:1032200000566572696669636174696F6E206661D4
:10323000696C65642C2072656D6F766520746865B5
:103240002066696C616D656E7420616E64207472B5
:103250007920616761696E2E0053656E736F72200D
:1032600076657269666965642C2072656D6F766536
:10327000207468652066696C616D656E74206E6F80
:10328000772E00506C6561736520636865636B2001
:103290007468652049522073656E736F7220636F86
:1032A0006E6E656374696F6E2C20756E6C6F6164F1
:1032B0002066696C616D656E742069662070726548
:1032C00073656E742E00506C6561736520756E6C4D
:1032D0006F6164207468652066696C616D656E74E9
:1032E0002066697273742C207468656E2072657034
:1032F000656174207468697320616374696F6E2EF0
:103300000057616974696E6720666F72206E6F7A0C
:103310007A6C6520616E642062656420636F6F6CF7
:10332000696E670053656C662074657374204F4B3B
:103330000053656C662074657374207374617274D5
:103340002020002563252E3135533A25732533641B
:1033500000252D32302E3230530A00457872656DCB
:1033600065207370616E206F6620746865205A2036
:1033700076616C75657321006F6B0A0073746172FE
:10338000740A004D4D5532206669726D7761726521
:103390002076657273696F6E20696E76616C696400
:1033A0002E20526571756972656420766572736945
:1033B0006F6E3A206275696C64206E756D6265721D
:1033C000202564206F72206869676865722E004D41
:1033D0004D55203D3E20276F6B270A004D4D55204F
:1033E0003D3E20276F6B270A002564004D4D552078
:1033F0003D3E20276F6B272C20726573756D65200D
:103400007072696E740A004D4D5520726574727940
:1034100020617474656D7074206E722E2025640AAC
:10342000004D4D55203D3E20276F6B270A00410A75
:10343000004D4D55203C3D202741270A004D363098
:1034400030004D363030204155544F0025686875A6
:1034500000410A004D4D55203C3D202741270A00E0
:1034600050300A004D25640A004D4D55203C3D204A
:10347000274D2564270A0057300A004D4D55203C42
:103480003D20275730270A0053330A004D4D552061
:103490003C3D20275333270A0052300A004D4D553A
:1034A000203C3D20275230270A004B25640A004D5E
:1034B0004D55203C3D20274B2564270A00452564B7
:1034C0000A004D4D55203C3D2027452564270A0024
:1034D00055300A004D4D55203C3D20275530270AD8
:1034E0000043300A004D4D55203C3D2027433027F6
:1034F0000A004C25640A004D4D55203C3D20274CC8
:103500002564270A005425640A004D4D55203C3D92
:103510002027542564270A004D4D55202D20454E67
:1035200041424C454400256868750050300A004D02
:10353000310A004D4D55203C3D20274D312700508C
:10354000300A004D4D552076657273696F6E207696
:10355000616C6964004D4D55203D3E202725646F08
:103560006B270A0025750053320A004D4D55203C4B
:103570003D2027533227004D4D55203D3E20272525
:10358000646F6B270A002575004D4D55206E6F74D2
:1035900020726573706F6E64696E67202D204449D8
:1035A0005341424C45440053310A004D4D55203C97
:1035B0003D2027533127004D4D55203D3E20277398
:1035C000746172742700426564206C6576656C696D
:1035D0006E67206661696C65642E2053656E736F3B
:1035E00072206469646E7420747269676765722EF4
:1035F00020446562726973206F6E206E6F7A7A6CF8
:10360000653F2057616974696E6720666F7220722A
:10361000657365742E00506C656173652075706408
:10362000617465206669726D7761726520696E20CC
:10363000796F7572204D4D55322E2057616974692E
:103640006E6720666F722072657365742E000000CD
:10365000000000110A0450525553413344465700AC
:1036600000002100240027002A002D003000330034
:1036700001010000040107010A01000022002500E9
:1036800028002B002E00310034000201000005014B
:1036900008010B01000020002300260029002C0057
:1036A0002F00320000010000030106010901050599
:1036B0000505070508080808020202020A0A0808A8
:1036C00004040404010101010101010103030303D6
:1036D00003030303040707070C0C0C0C0C0C0C0C65
:1036E0000202020206060606060606060B0B0B0B76
:1036F0000B0B0B0B07070A0A0A0A0A0A0505050441
:10370000040408080102102020080810204010209E
:103710004080020102010804020101020408102095
:103720004080804020100804020180040201804093
:1037300020100804020108040201010204081020FC
:103740004080010204081020408010080408801006
:103750002040044080102040048000000A0B020931
:103760000C0D0E080703040100000000000000001B
:103770000000000000000000000000000000000049
:103780000000000000001211100000000000000006
:103790000000000000000000000000000000000029
:1037A0000000000000000000000000000000000019
:1037B000534420636172642072656C656173656453
:1037C00000414C5446414E206465742E004572728F
:1037D0006F72202D20737461746963206D656D6F45
:1037E000727920686173206265656E206F766572FC
:1037F0007772697474656E00436172642072656DDE
:103800006F766564004F6E004F6666004261636BC1
:10381000005072696E746572206E6F7A7A6C6520E2
:103820006469616D6574657220646966666572734A
:103830002066726F6D2074686520472D636F646524
:103840002E20506C6561736520636865636B20741E
:1038500068652076616C756520696E207365747487
:10386000696E67732E205072696E742063616E6397
:10387000656C6C65642E005072696E746572206EA2
:103880006F7A7A6C65206469616D65746572206415
:103890006966666572732066726F6D207468652054
:1038A000472D636F64652E20436F6E74696E756576
:1038B0003F0078797A63616C5F73706972616C3212
:1038C0002063783D25642063793D2564207A303D6E
:1038D000256420647A3D2564207261646975733DB6
:1038E00025642061643D25640A005061747465722A
:1038F0006E2063656E746572205B25662025665DAB
:103900002C206D6174636820256625250A00205BE4
:1039100025662C2025665D5B25665D2066696E61E7
:103920006C20636972636C650A00205B25662C203D
:1039300025665D5B25665D20636972636C650A00C0
:10394000746D63323133305F676F746F5F737465AA
:1039500070202564202564202564202564200A0029
:103960004E6F2030784646207265636569766564DF
:103970000053656E64696E67203078464600534494
:103980002063617264206F6B006F70656E526F6FA1
:1039900074206661696C656400766F6C756D652E68
:1039A000696E6974206661696C65640053442069BE
:1039B0006E6974206661696C00536F7274696E671A
:1039C0002066696C657300536F6D652066696C6570
:1039D000732077696C6C206E6F7420626520736F42
:1039E000727465642E204D61782E204E6F2E206FEC
:1039F000662066696C657320696E203120666F6C85
:103A000064657220666F7220736F7274696E6720CE
:103A10006973203130302E00726573756C742076B6
:103A2000616C75653A2025640A0020693D25326481
:103A300020636E743D2532642076616C3D253264CE
:103A40000A00636C7573746572733A0020693D25D2
:103A5000326420737465703D2532640A00736F729E
:103A60007465642073616D706C65733A00252D3741
:103A700073003A200025642F3600252D3230530084
:103A8000203A2000252D3230730025632533642F22
:103A900025642563005A25362E32662563005A2098
:103AA00020202D2D2D200025632533642525002D74
:103AB0002D2D002533686864002533532533732585
:103AC000250055534200202020002053440020258B
:103AD000753E257500203F3E257500204625750062
:103AE00020463F002046524D200025632D2D3A2DC3
:103AF0002D2020002563253375682025632563006C
:103B00002563253032753A253032752563256300EB
:103B1000526573756D696E67207072696E740050BE
:103B2000494E44412048656174696E670043616C89
:103B30006962726174696F6E20646F6E65004361C3
:103B40006C6962726174696E67205A004265642014
:103B5000646F6E65004265642048656174696E67D4
:103B60000048656174696E6720646F6E652E004859
:103B7000656174696E67001000C90210012C014074
:103B800001220170011801B0010E01F00104015081
:103B900002FA00B002F0003003E600D003DC00902F
:103BA00004D2007005C800A006BE000008B400B032
:103BB00009AA00D00BA000600E960060118C0000D6
:103BC00015820020197800C01D6E00A0226400B08C
:103BD000275A00902C500000314600E0343C001081
:103BE000383200903A2800603C1E00A03D1400804E
:103BF0003E0A00203F0000202D20496E76616C694E
:103C000064206578747275646572206E756D626586
:103C10007220210070012C0190012701B0012201C6
:103C2000C0011D01F00118011002130130020E0144
:103C30006002090190020401C002FF000003FA00C3
:103C40004003F5008003F000D003EB002004E60001
:103C50007004E100E004DC004005D700C005D2009C
:103C60004006CD00D006C8008007C3003008BE0063
:103C7000F008B900C009B400B00AAF00B00BAA0048
:103C8000D00CA500000EA000500F9B00C0109600A5
:103C90005012910000148C00C0158700B0178200EC
:103CA000B0197D00D01B7800001E730040206E000C
:103CB00090226900F024640040275F0090295A0098
:103CC000E02B5500102E500020304B0010324600E3
:103CD000E033410090353C00103737007038320037
:103CE000A0392D00B03A2800A03B2300603C1E0004
:103CF000103D1900903D1400103E0F00703E0A0068
:103D0000C03E0500003F000090137D00B015780014
:103D1000F0177300601A6E00F01C6900A01F6400A9
:103D200050225F0020255A00E0275500902A5000BD
:103D3000202D4B00A02F4600F031410010343C00F4
:103D4000F0353700A037320020392D00603A2800C6
:103D5000703B2300603C1E00203D1900C03D140054
:103D6000403E0F00A03E0A00F03E0500403F00002C
:103D7000703FFBFF903FF6FFB03FF1FFC03FECFF0D
:103D8000D03FE7FFE03FE2FFF03FDDFFF03FD8FF2D
:103D900020484F54454E4420544845524D414C20F4
:103DA00052554E41574159002048454154424544DF
:103DB00020544845524D414C2052554E415741598F
:103DC00000544845524D414C2052554E415741599F
:103DD0000042454420544845524D414C2052554ED6
:103DE000415741590020544845524D414C205255AD
:103DF0004E415741592028205052454845415420B2
:103E0000484F54454E44290020544845524D414C9A
:103E10002052554E4157415920282050524548457F
:103E20004154204845415442454429005052454898
:103E3000454154204552524F520042454420505271
:103E40004548454154204552524F52004572723AFE
:103E50002000207472696767657265642100486597
:103E60006174657273207377697463686564206F29
:103E700066662E20003A2000506C656173652072E2
:103E8000657374617274004D494E54454D50004D38
:103E9000494E54454D502042454400746D633231C3
:103EA00033305F686F6D655F656E74657228617829
:103EB00065735F6D61736B3D307825303278290A08
:103EC00000746D63323133305F686F6D655F6578A4
:103ED000697420746D63323133305F73675F686F6C
:103EE0006D696E675F617865735F6D61736B3D309F
:103EF00078253032780A00544D43204452495645C3
:103F000052204F56455254454D50004731205835A8
:103F10002E302045342E302046313030302E3000C7
:103F20004731205A302E32302046313030302E305A
:103F3000004731205835352E302045323520463166
:103F40003430302E3000473120592D322E3020466B
:103F5000313030302E3000473120583234302E305E
:103F6000204532352E30202046323230302E30007F
:103F70004739322045302E30004731205A302E3319
:103F80002046313030302E30004731205835352E24
:103F9000302045382E302046323030302E30004729
:103FA000312058352E30204533322E3020463138DE
:103FB00030302E30004731205835352E30204533F3
:103FC000322E302046313037332E300047312046F4
:103FD00034303030004D3230342053313030300006
:103FE0004731205A352046373230302E30303000BD
:103FF000473120452D312E3530303030204632319A
:1040000030302E3030303030004D383300473930CA
:1040100000473231004739322045302E30004731D9
:1040200020583530205935352045332E3632373734
:104030003300473120583230302059353520453053
:104040002E34393338360047312058323030205939
:1040500037352045332E3632373733004731205835
:104060003530205937352045302E34393338360035
:10407000473120583530205939352045332E3632D6
:104080003737330047312058323030205939352006
:1040900045302E34393338360047312058323030ED
:1040A00020593131352045332E36323737330047EA
:1040B000312058353020593131352045302E3439B2
:1040C00033383600473120583530205931333520C8
:1040D00045332E36323737330047312058323030AF
:1040E00020593133352045302E36363137340047AC
:1040F00031205832303020593135352045322E3676
:10410000323737330047312058313030205931357C
:104110003520453200473120583735205931353563
:104120002045322E350047312046313038300047A7
:1041300031205A302E3135302046373230302E3053
:10414000303000473120583530205931353500475F
:1041500039322045302E3000473238004D31303969
:10416000004D313930004D3130370054256400475F
:1041700031205A302E342046313030302E30004736
:104180003120592D332E302046313030302E300042
:104190004D383300473120583130302E30204531F2
:1041A000322E352046313030302E30004731205805
:1041B00036302E302045392E302046313030302EEA
:1041C0003000B53F9F3F893F793F703F573F463FA3
:1041D000313F203F0B3F154011400D400940F03F5B
:1041E000E03FD53FCC3F473120583530205933355B
:1041F0002045252D2E33660043412F412641154190
:104200000541EF40D940C440AF40994084407040E0
:104210005C40474032401E40496E76616C696420C4
:104220005049442063616C2E20726573756C747301
:104230002E204E6F742073746F72656420746F202B
:10424000454550524F4D2E004D35303000473120FE
:104250005A31352046313530300047393100473149
:1042600020583530205931393020453020463730FC
:10427000303000473930004D3834004D373032206F
:1042800043004731205831302059313830204634EE
:10429000303030004731205A313020463133303011
:1042A0002E303030004D313430205330004D31301D
:1042B0003420533000473120452D302E30373530F3
:1042C000302046323130302E3030303030004D31F9
:1042D00030370025530A20252D31362E313653250F
:1042E0002D33640A20252D31362E313653252D33BA
:1042F000640025530A20252D31362E313653252DC5
:1043000033640A20252D31362E313653252D336462
:104310000A20252D31362E313653252D33640025C4
:10432000530A20252D31362E313653252D33640A7C
:1043300020252D31362E313653252D33640A202584
:104340002D372E37535820252D3364202059202512
:104350002D33640020257325336401200A000A20D0
:104360004952203A2020202020202025332E31665B
:104370005600205057523A20202020202025342E4D
:104380003166560A204245443A202020202020252C
:10439000342E3166560025530A20582025640A2001
:1043A000592025640025752E25752E25752E257519
:1043B0000025730020005072696E746572204950A8
:1043C00020416464723A002573002000466C6173DA
:1043D0006841697220495020416464723A004D4D31
:1043E0005532202020202020204E2F410025642EF1
:1043F00025642E25642D2564002046573A00466921
:104400006C2E2073656E736F7220762E3A004D61AC
:1044100072203231203230323100453344763666F4
:10442000756C6C0045494E53795F31306100315FE6
:1044300037356D6D5F4D4B33002D2D2D2D2D2D2DD1
:104440002D2D2D2D2D00207265706F20556E6B6EF9
:104450006F776E0020332E392E332D3335353600ED
:104460004669726D776172653A004D373032004DA2
:10447000373031004D373032004D373031004D315B
:104480003137204669727374206C617965722063DC
:10449000616C2E005049442063616C2E2066696E69
:1044A0006973686564005049442063616C2E202064
:1044B000202020202020202020005072696E7420AF
:1044C000706175736564005072696E742046414E68
:1044D000004E6F7A7A6C652046414E004D4D552056
:1044E000706F776572206661696C73004D4D552061
:1044F0006C6F6164206661696C73004D4D55206678
:1045000061696C7300546F74616C206661696C75CD
:104510007265730043726173680046696C2E207285
:10452000756E6F75747300506F7765722066616980
:104530006C75726573004C617374207072696E746F
:10454000206661696C7572657300546F74616C00EC
:104550004C617374207072696E740050494E44410E
:1045600000416D6269656E7400566F6C74616765B9
:10457000730054656D706572617475726573004285
:10458000656C74207374617475730053656E736F1A
:104590007220696E666F004578747275646572206A
:1045A000696E666F0058595A2063616C2E206465ED
:1045B0007461696C7300756E6B6E6F776E004D4D34
:1045C000553220636F6E6E65637465640044617478
:1045D000653A00686F77746F2E707275736133641B
:1045E0002E636F6D00666F72756D2E7072757361DC
:1045F00033642E636F6D00707275736133642E6364
:104600006F6D00746F20756E6C6F61642066696CED
:10461000616D656E7400746F206C6F6164206669F3
:104620006C616D656E74005072657373207468659B
:10463000206B6E6F62003E43616E63656C0050726A
:104640006568656174696E6720746F2063757400B6
:1046500050726568656174696E6720746F20656A61
:104660006563740050726568656174696E67207473
:104670006F20756E6C6F616400507265686561745F
:10468000696E6720746F206C6F6164002F2F20614A
:104690006374696F6E3A70617573650025732025C8
:1046A00034642052504D0A25732025346420525022
:1046B0004D0A00506C656173652070756C6C206FDD
:1046C00075742066696C616D656E7420696D6D65C9
:1046D00064696174656C7900556E6C6F6164696EB4
:1046E000672066696C616D656E74005265736574F0
:1046F0000052656E616D65004669727374206C616D
:104700007965722063616C2E0053656C656374007B
:10471000537465656C2073686565747300537570B8
:10472000706F7274004661696C20737461747320D9
:104730004D4D55004661696C20737461747300536C
:1047400074617469737469637320200043616C69D8
:1047500062726174696F6E004175746F4C6F616451
:104760002066696C616D656E7400437574206669BE
:104770006C616D656E7400456A6563742066696C72
:10478000616D656E7400556E6C6F61642066696C56
:10479000616D656E74004C6F616420746F206E6F84
:1047A0007A7A6C65004C6F61642066696C616D6536
:1047B0006E74004E6F205344206361726400507227
:1047C000696E742066726F6D205344005265737574
:1047D0006D65207072696E7400506175736520702C
:1047E00072696E7400507265686561740054756E0C
:1047F00065004C6976652061646A757374205A009F
:10480000496E666F2073637265656E0046696E69F6
:104810007368696E67206D6F76656D656E74730081
:104820004272696768746E6573730041737369736C
:10483000740053696C656E74004F6E6365004C6F55
:10484000756400536F756E64004D4D55204D6F6457
:1048500065004372617368206465742E005374654B
:10486000616C7468004E6F726D616C0046616E73AE
:1048700020636865636B00506175736500436F6EFC
:10488000742E00465320416374696F6E0046696C54
:104890002E2073656E736F72004368616E676520CA
:1048A00066696C616D656E7400466C6F770053705D
:1048B000656564004E2F41004D61676E657473201D
:1048C000636F6D702E005A2D70726F6265206E726C
:1048D0002E004D6573680054696D656F75740042F4
:1048E0007269676874004D6F6465004175746F008C
:1048F00044696D004C6576656C2044696D6D656436
:10490000004C6576656C2042726967687400466188
:104910006E20737065656400426564004E6F7A7A3C
:104920006C650053657474696E6773005072696ECC
:10493000742061626F727465640053746F702070CC
:1049400072696E74004572723A205052494E54207A
:1049500046414E204552524F52004572723A204510
:104960005854522E2046414E204552524F52002F4D
:104970002F20616374696F6E3A70617573656400AE
:104980002F2F20616374696F6E3A726573756D6560
:1049900064002F2F20616374696F6E3A72657375BE
:1049A0006D65002F2F20616374696F6E3A63616ECD
:1049B00063656C004D3630300020746F6F206C6F73
:1049C0006E6720657874727573696F6E207072659A
:1049D00076656E7465640020636F6C64206578741E
:1049E000727573696F6E2070726576656E7465643A
:1049F000005553415254322072782046756C6C2118
:104A000021210053657474696E67732053746F724B
:104A100065640053746F7265642073657474696EA5
:104A200067732072657472696576656400486172A7
:104A300064636F6465642044656661756C742053BB
:104A4000657474696E6773204C6F616465640056A9
:104A50003200000000C8420000C8420000C8430005
:104A6000804F44000048430000484300004041009C
:104A700000F0421405000014050000C80000008882
:104A80001300000000AF440000AF4400000000002D
:104A9000000000204E00000000204100002041CD19
:104AA000CCCC3E0000904000000000000000000060
:104AB000000000CDCCCC3E3D0A8141FF08433EB012
:104AC00099AB438F42FC42E65A343F4C62B04500FA
:104AD00000000000404000003442000000000000E0
:104AE000000000000041000000E03F0000C842005C
:104AF00000C842000040410000F042E8030000E826
:104B0000030000C8000000881300001010102000EF
:104B100000AF44627573793A2070617573656420E3
:104B2000666F7220696E70757400627573793A20D1
:104B300070617573656420666F72207573657200AD
:104B4000627573793A2070726F63657373696E670B
:104B500000202030002020310046696C2E20736533
:104B60006E736F720046494E44410050494E4441B5
:104B7000004578747275646572004D6F7665205AD1
:104B8000004D6F76652059004D6F766520580043C3
:104B90007261736820646574656374696F6E206305
:104BA000616E0A6265207475726E6564206F6E2096
:104BB0006F6E6C7920696E0A4E6F726D616C206D3C
:104BC0006F6465005741524E494E473A0A4372613D
:104BD000736820646574656374696F6E0A646973D1
:104BE00061626C656420696E0A537465616C7468F7
:104BF000206D6F6465004175746F6C6F6164696EE0
:104C0000672066696C616D656E7420617661696CA0
:104C100061626C65206F6E6C79207768656E2066C6
:104C2000696C616D656E742073656E736F72206957
:104C300073207475726E6564206F6E2E2E2E004583
:104C400052524F523A2046696C616D656E74207302
:104C5000656E736F72206973206E6F742072657356
:104C6000706F6E64696E672C20706C65617365206F
:104C7000636865636B20636F6E6E656374696F6EE6
:104C80002E004D6F6465206368616E676520696EF4
:104C90002070726F6772657373202E2E2E007B5BFF
:104CA0004552523A005D5B4657523A005D5B5449AB
:104CB0004D3A005D5B464E4D3A005D5B46454D3AD0
:104CC000005D5B5043443A005B5446553A007B5BC1
:104CD00050524E3A39395D007B5B50524E3A355D49
:104CE000007B5B50524E3A305D007B5B50524E3A37
:104CF000395D007B5B50524E3A385D007B5B52451C
:104D0000533A305D5B46494C3A007B5B5245533A1F
:104D1000315D5B46494C3A005B50524E3A005B5065
:104D2000464E3A305D005B4449413A005D5B415478
:104D3000423A005D5B4154303A005D5B5354423A65
:104D4000005B5354303A00473830004D3435004D45
:104D50003435205A0022206661696C65643A20422D
:104D600075666665722066756C6C21002200256987
:104D700020686F757273202569206D696E75746582
:104D8000730054494D454F55543A004D3131300070
:104D900046756C6C205258204275666665720065D7
:104DA0006E717565696E67202200446F6E652070B4
:104DB00072696E74696E672066696C65004D313189
:104DC000322063616C6C65642E20456D6572676589
:104DD0006E63792053746F702E005072696E746523
:104DE000722073746F707065642064756520746FD1
:104DF000206572726F72732E204669782074686520
:104E0000206572726F7220616E6420757365204D2B
:104E100039393920746F20726573746172742E2071
:104E20002854656D706572617475726520697320B0
:104E300072657365742E20536574206974206166F1
:104E40007465722072657374617274696E6729008B
:104E50004E6F204C696E65204E756D6265722077CD
:104E600069746820636865636B73756D2C204C6191
:104E70007374204C696E653A20004E6F204368655C
:104E8000636B73756D2077697468206C696E65203B
:104E90006E756D6265722C204C617374204C696E66
:104EA000653A2000636865636B73756D206D697387
:104EB0006D617463682C204C617374204C696E655D
:104EC0003A20004C696E65204E756D6265722069EE
:104ED00073206E6F74204C617374204C696E652072
:104EE0004E756D6265722B312C204C617374204CB1
:104EF000696E653A200053544F505045442E2000AF
:104F000000002110422063308440A550C660E77045
:104F1000088129914AA16BB18CC1ADD1CEE1EFF1ED
:104F20003112100273325222B5529442F772D66295
:104F3000399318837BB35AA3BDD39CC3FFF3DEE33D
:104F40006224433420040114E664C774A4448554E5
:104F50006AA54BB528850995EEE5CFF5ACC58DD58D
:104F60005336722611163006D776F6669556B44635
:104F70005BB77AA719973887DFF7FEE79DD7BCC7DD
:104F8000C448E5588668A778400861180228233885
:104F9000CCC9EDD98EE9AFF9488969990AA92BB92D
:104FA000F55AD44AB77A966A711A500A333A122AD5
:104FB000FDDBDCCBBFFB9EEB799B588B3BBB1AAB7D
:104FC000A66C877CE44CC55C222C033C600C411C25
:104FD000AEED8FFDECCDCDDD2AAD0BBD688D499DCD
:104FE000977EB66ED55EF44E133E322E511E700E75
:104FF0009FFFBEEFDDDFFCCF1BBF3AAF599F788F1D
:105000008891A981CAB1EBA10CD12DC14EF16FE1FC
:105010008010A100C230E320045025404670676034
:10502000B9839893FBA3DAB33DC31CD37FE35EF34C
:10503000B1029012F322D232354214527762567284
:10504000EAB5CBA5A89589856EF54FE52CD50DC59C
:10505000E234C324A01481046674476424540544D4
:10506000DBA7FAB79987B8975FE77EF71DC73CD7EC
:10507000D326F2369106B016576676761546345624
:105080004CD96DC90EF92FE9C899E9898AB9ABA93C
:105090004458654806782768C018E1088238A32874
:1050A0007DCB5CDB3FEB1EFBF98BD89BBBAB9ABB8C
:1050B000754A545A376A167AF10AD01AB32A923AC4
:1050C0002EFD0FED6CDD4DCDAABD8BADE89DC98DDC
:1050D000267C076C645C454CA23C832CE01CC10C14
:1050E0001FEF3EFF5DCF7CDF9BAFBABFD98FF89F2C
:1050F000176E367E554E745E932EB23ED10EF01E64
:105100007C3C3E3F2F2A225C0024F4D43050C38ED6
:1051100020C2A24017828B7011127A910D816CD936
:105120000AA861E108C7586607615143061E4B5D36
:1051300005C145A7041A411104093D98037139318D
:10514000034036DB0265339102D4305402802E1DB9
:1051500002632CEE01752AC501B028A00110278139
:10516000018F2564012B244B01E0223401AC211F67
:10517000018D200D01801FFC00841EED00971DDFB6
:1051800000B81CD200E61BC600201BBC00641AB28B
:1051900000B219A8000A19A0006A189900D1179145
:1051A0000040178B00B516840031167E00B31579C8
:1051B000003A157300C7146F0058146A00EE1366A6
:1051C000008813630025135E00C7125B006C125742
:1051D0000015125400C111510070114F0021114BE4
:1051E00000D61049008D10470046104400021042BE
:1051F00000C00F4000800F3E00420F3C00060F3BF6
:1052000000CB0E3800930E37005C0E3500270E34AD
:1052100000F30D3200C10D3100900D3000600D2EF5
:1052200000320D2D00050D2C00D90C2B00AE0C29E1
:1052300000850C29005C0C2700350C27000E0C267D
:1052400000E80B2400C40B2400A00B23007D0B23DB
:10525000005A0B2100390B2100180B2000F80A1FFF
:1052600000D90A1E00BB0A1E009D0A1D00800A1DEF
:1052700000630A1C00470A1B002C0A1B00110A1AB3
:1052800000F7091A00DD091900C4091900AB091952
:1052900000920917007B091800630917004C0916D2
:1052A0000036091600200916000A091500F5081530
:1052B00000E0081400CC081400B8081400A4081476
:1052C00000900813007D0812006B081300580812A4
:1052D00000460812003408110023081100120811BA
:1052E0000001081100F0071000E0071000D00710BF
:1052F00000C0071000B0070F00A107100091070EB3
:105300000083070F0074070F0065070E0057070E94
:105310000049070E003B070D002E070E0020070D69
:105320000013070D0006070D00F9060C00ED060D31
:1053300000E0060C00D4060C00C8060C00BC060CED
:1053400000B0060C00A4060B0099060C008D060B9D
:105350000082060B0077060B006C060B0061060A44
:105360000057060B004C060A0042060A0038060ADF
:10537000002E060A0024060A001A060A0010060972
:105380000007060A00FD050900F4050900EB050900
:1053900000E2050900D9050900D0050900C7050983
:1053A00000BE050900B5050800AD050800A5050902
:1053B000009C050800940508008C05080084050879
:1053C000007C050800740508006C050700650508E9
:1053D000005D050700560508004E05070047050754
:1053E000004005080038050700310507002A0507B9
:1053F00000230507001C050600160507000F05071A
:10540000000805060002050700FB040600F5040776
:1054100000EE040600E8040600E2040700DB0406D0
:1054200000D5040600CF040600C9040600C3040624
:1054300000BD040600B7040600B1040500AC040674
:1054400000A6040600A00405009B040600950405C0
:1054500000900406008A0405008504050080040607
:10546000007A04050075040500700405006B04054E
:105470000066040500610405005C0405005704058E
:1054800000520405004D04050048040500430405CE
:10549000003E0404003A040500350405003004040D
:1054A000002C04050027040400230405001E040446
:1054B000001A04040016040500110404000D04047D
:1054C00000090405000404040000040400FC0304B3
:1054D00000F8030400F4030400F0030400EC0304E8
:1054E00000E8030400E4030400E0030400DC030418
:1054F00000D8030400D4030400D0030400CC030448
:1055000000C8030300C503030024F404D9201BC40E
:105510000C5C0E9804C4095F0265077101F405F97B
:1055200000FB04B30048048700C103690058035519
:105530000003034500BE023A008402310053022AF0
:10554000002902250004022000E4011C00C8011902
:1055500000AF0117009801140084011300710110BD
:10556000006101100051010E0043010D0036010BD6
:10557000002B010B0020010B00150109000C010993
:105580000003010800FB000800F3000800EB00071F
:1055900000E4000600DE000600D8000600D2000687
:1055A00000CC000500C7000500C2000500BD0004D6
:1055B00000B9000400B5000400B1000400AD00040F
:1055C00000A9000400A5000300A20003009F00043E
:1055D000009B000300980003009500020093000365
:1055E00000900003008D0002008B00030088000281
:1055F000008600020084000300810002007F000298
:10560000007D0002007B00020079000200770001AB
:1056100000760002007400020072000100710002B6
:10562000006F0002006D0001006C0002006A0001C2
:1056300000690002006700010066000100650001CA
:1056400000640002006200010061000100600001CE
:10565000005F0002005D0001005C0001005B0001D2
:10566000005A0001005900010058000100570001D4
:1056700000560001005500010054000100530000D5
:1056800000530001005200010051000100500001D0
:10569000004F0001004E0000004E0001004D0001CF
:1056A000004C0001004B0000004B0001004A0001CB
:1056B00000490001004800000048000100470001C7
:1056C00000460000004600010045000000450001C2
:1056D00000440001004300000043000100420000BC
:1056E00000420001004100000041000100400001B3
:1056F000003F0000003F0001003E0000003E0001AE
:10570000003D0000003D0001003C0000003C0000A6
:10571000003C0001003B0000003B0001003A00009B
:10572000003A000100390000003900010038000093
:105730000038000000380001003700000037000189
:105740000036000000360000003600010035000081
:105750000035000000350001003400000034000076
:10576000003400010033000000330000003300016A
:105770000032000000320000003200010031000061
:105780000031000000310001003000000030000056
:1057900000300001002F0000002F0000002F00004B
:1057A000002F0001002E0000002E0000002E00013E
:1057B000002D0000002D0000002D0000002D000134
:1057C000002C0000002C0000002C0000002C000128
:1057D000002B0000002B0000002B0000002B00011C
:1057E000002A0000002A0000002A0000002A000110
:1057F0000029000000290000002900000029000005
:1058000000290001002800000028000000280000F6
:1058100000280000002800010027000000270000E9
:1058200000270000002700000027000100260000DC
:1058300000260000002600000026000000260001CF
:1058400000250000002500000025000000250000C4
:1058500000250000002500010024000000240000B5
:1058600000240000002400000024000100230000A8
:10587000002300000023000000230000002300009C
:10588000002300000023000100220000002200008D
:10589000002200000022000000220000002200017F
:1058A0000021000000210000002100000021000074
:1058B0000021000000210000002100010020000064
:1058C0000020000000200000002000000020000058
:1058D000002000000020000000200001001F000048
:1058E000001F0000001F0000001F0000001F00003C
:1058F000001F0000001F0001001E0000001E00002D
:10590000001E0000001E00000000007F43008054C5
:10591000430000524300000000000080C09A991923
:105920003E00000000000080C09A99193E0000A0CF
:10593000400000A0400000004025336420737465DF
:10594000703D253264206D73636E743D2534640AA6
:105950000000007F43008058439AD95143FFFFFF66
:1059600020413A0020503A002042403A0020403A7C
:1059700000202F00205400202F0020423A00202F2A
:1059800000543A0020453A00205A3A0020593A0083
:1059900020453A00205A3A0020593A00583A006708
:1059A000636F64655F4D37303120626567696E0AE9
:1059B0000020436F756E7420583A200045303A2518
:1059C000642052504D2050524E313A25642052509E
:1059D0004D204530403A25752050524E31403A25F1
:1059E000640A0043616C69627261746500536865A2
:1059F000657420252E37730A5A206F6666736574A6
:105A00003A20252B312E3366206D6D0A2563436FB6
:105A10006E74696E75650A256353746172742066CD
:105A2000726F6D207A65726F00506C6561736520CE
:105A30006C6F61642066696C616D656E7420666967
:105A40007273742E0043616E63656C0046696C610D
:105A50006D656E740053656C6563742066696C6176
:105A60006D656E743A0052756E6E696E6720576987
:105A70007A6172642077696C6C2064656C6574650A
:105A80002063757272656E742063616C6962726105
:105A900074696F6E20726573756C747320616E64C7
:105AA0002073746172742066726F6D207468652053
:105AB000626567696E6E696E672E20436F6E7469EA
:105AC0006E75653F0050726568656174696E672028
:105AD0006E6F7A7A6C652E20506C656173652077E5
